{
  "contractName": "CrowdsaleConsole",
  "abi": [
    {
      "constant": true,
      "inputs": [
        {
          "name": "_name",
          "type": "bytes32"
        },
        {
          "name": "_symbol",
          "type": "bytes32"
        },
        {
          "name": "_decimals",
          "type": "uint256"
        },
        {
          "name": "_context",
          "type": "bytes"
        }
      ],
      "name": "initCrowdsaleToken",
      "outputs": [
        {
          "name": "store_data",
          "type": "bytes32[]"
        }
      ],
      "payable": false,
      "stateMutability": "view",
      "type": "function"
    },
    {
      "constant": true,
      "inputs": [
        {
          "name": "_new_min_contribution",
          "type": "uint256"
        },
        {
          "name": "_context",
          "type": "bytes"
        }
      ],
      "name": "updateGlobalMinContribution",
      "outputs": [
        {
          "name": "store_data",
          "type": "bytes32[]"
        }
      ],
      "payable": false,
      "stateMutability": "view",
      "type": "function"
    },
    {
      "constant": true,
      "inputs": [
        {
          "name": "_tier_index",
          "type": "uint256"
        },
        {
          "name": "_to_update",
          "type": "address[]"
        },
        {
          "name": "_minimum_contribution",
          "type": "uint256[]"
        },
        {
          "name": "_max_spend_amt",
          "type": "uint256[]"
        },
        {
          "name": "_context",
          "type": "bytes"
        }
      ],
      "name": "whitelistMultiForTier",
      "outputs": [
        {
          "name": "store_data",
          "type": "bytes32[]"
        }
      ],
      "payable": false,
      "stateMutability": "view",
      "type": "function"
    },
    {
      "constant": true,
      "inputs": [
        {
          "name": "_tier_names",
          "type": "bytes32[]"
        },
        {
          "name": "_tier_durations",
          "type": "uint256[]"
        },
        {
          "name": "_tier_prices",
          "type": "uint256[]"
        },
        {
          "name": "_tier_caps",
          "type": "uint256[]"
        },
        {
          "name": "_tier_is_modifiable",
          "type": "bool[]"
        },
        {
          "name": "_tier_is_whitelisted",
          "type": "bool[]"
        },
        {
          "name": "_context",
          "type": "bytes"
        }
      ],
      "name": "createCrowdsaleTiers",
      "outputs": [
        {
          "name": "store_data",
          "type": "bytes32[]"
        }
      ],
      "payable": false,
      "stateMutability": "view",
      "type": "function"
    },
    {
      "constant": true,
      "inputs": [
        {
          "name": "_tier_index",
          "type": "uint256"
        },
        {
          "name": "_new_duration",
          "type": "uint256"
        },
        {
          "name": "_context",
          "type": "bytes"
        }
      ],
      "name": "updateTierDuration",
      "outputs": [
        {
          "name": "store_data",
          "type": "bytes32[]"
        }
      ],
      "payable": false,
      "stateMutability": "view",
      "type": "function"
    },
    {
      "constant": true,
      "inputs": [
        {
          "name": "_context",
          "type": "bytes"
        }
      ],
      "name": "initializeCrowdsale",
      "outputs": [
        {
          "name": "store_data",
          "type": "bytes32[]"
        }
      ],
      "payable": false,
      "stateMutability": "view",
      "type": "function"
    },
    {
      "constant": true,
      "inputs": [
        {
          "name": "_context",
          "type": "bytes"
        }
      ],
      "name": "finalizeCrowdsale",
      "outputs": [
        {
          "name": "store_data",
          "type": "bytes32[]"
        }
      ],
      "payable": false,
      "stateMutability": "view",
      "type": "function"
    }
  ],
  "bytecode": "0x612e37610030600b82828239805160001a6073146000811461002057610022565bfe5b5030600052607381538281f300730000000000000000000000000000000000000000301460806040526004361061009a576000357c0100000000000000000000000000000000000000000000000000000000900463ffffffff168063593d27d81461009f5780636523262d14610150578063772c65e4146102015780637c0c13be146104445780639cd75fab14610509578063bead564a146105c4578063ca94c44f14610748575b600080fd5b6100f9600480360381019080803590602001908201803590602001908080601f016020809104026020016040519081016040528093929190818152602001838380828437820191505050505050919291929050505061081f565b6040518080602001828103825283818151815260200191508051906020019060200280838360005b8381101561013c578082015181840152602081019050610121565b505050509050019250505060405180910390f35b6101aa600480360381019080803590602001908201803590602001908080601f0160208091040260200160405190810160405280939291908181526020018383808284378201915050505050509192919290505050610c3b565b6040518080602001828103825283818151815260200191508051906020019060200280838360005b838110156101ed5780820151818401526020810190506101d2565b505050509050019250505060405180910390f35b6103ed600480360381019080803590602001908201803590602001908080602002602001604051908101604052809392919081815260200183836020028082843782019150505050505091929192908035906020019082018035906020019080806020026020016040519081016040528093929190818152602001838360200280828437820191505050505050919291929080359060200190820180359060200190808060200260200160405190810160405280939291908181526020018383602002808284378201915050505050509192919290803590602001908201803590602001908080602002602001604051908101604052809392919081815260200183836020028082843782019150505050505091929192908035906020019082018035906020019080806020026020016040519081016040528093929190818152602001838360200280828437820191505050505050919291929080359060200190820180359060200190808060200260200160405190810160405280939291908181526020018383602002808284378201915050505050509192919290803590602001908201803590602001908080601f0160208091040260200160405190810160405280939291908181526020018383808284378201915050505050509192919290505050610f05565b6040518080602001828103825283818151815260200191508051906020019060200280838360005b83811015610430578082015181840152602081019050610415565b505050509050019250505060405180910390f35b6104b26004803603810190808035906020019092919080359060200190929190803590602001908201803590602001908080601f01602080910402602001604051908101604052809392919081815260200183838082843782019150505050505091929192905050506115ca565b6040518080602001828103825283818151815260200191508051906020019060200280838360005b838110156104f55780820151818401526020810190506104da565b505050509050019250505060405180910390f35b61056d60048036038101908080359060200190929190803590602001908201803590602001908080601f0160208091040260200160405190810160405280939291908181526020018383808284378201915050505050509192919290505050612083565b6040518080602001828103825283818151815260200191508051906020019060200280838360005b838110156105b0578082015181840152602081019050610595565b505050509050019250505060405180910390f35b6106f160048036038101908080359060200190929190803590602001908201803590602001908080602002602001604051908101604052809392919081815260200183836020028082843782019150505050505091929192908035906020019082018035906020019080806020026020016040519081016040528093929190818152602001838360200280828437820191505050505050919291929080359060200190820180359060200190808060200260200160405190810160405280939291908181526020018383602002808284378201915050505050509192919290803590602001908201803590602001908080601f01602080910402602001604051908101604052809392919081815260200183838082843782019150505050505091929192905050506122d6565b6040518080602001828103825283818151815260200191508051906020019060200280838360005b83811015610734578082015181840152602081019050610719565b505050509050019250505060405180910390f35b6107c86004803603810190808035600019169060200190929190803560001916906020019092919080359060200190929190803590602001908201803590602001908080601f0160208091040260200160405190810160405280939291908181526020018383808284378201915050505050509192919290505050612838565b6040518080602001828103825283818151815260200191508051906020019060200280838360005b8381101561080b5780820151818401526020810190506107f0565b505050509050019250505060405180910390f35b60606000806060846000806000606061083785612b7c565b50809550819450505061087e60405180807f726561644d756c746928627974657333322c627974657333325b5d2900000000815250601c0190506040518091039020612c4b565b91506108938383612c6890919063ffffffff16565b6108aa604060010283612c6890919063ffffffff16565b6108c1600260010283612c6890919063ffffffff16565b61090960405180807f61646d696e0000000000000000000000000000000000000000000000000000008152506005019050604051809103902083612c6890919063ffffffff16565b61095160405180807f63726f776473616c655f69735f696e69740000000000000000000000000000008152506011019050604051809103902083612c6890919063ffffffff16565b61095a82612c93565b90506002815114151561096957fe5b8373ffffffffffffffffffffffffffffffffffffffff166001026000191681600081518110151561099657fe5b90602001906020020151600019161415806109d1575060006001028160018151811015156109c057fe5b906020019060200201516000191614155b15610a0457610a037f4e6f7441646d696e4f7253616c654973496e697400000000000000000000000060001916612d15565b5b610a0d8a612b7c565b90505080985050610a5260405180807f726561644d756c746928627974657333322c627974657333325b5d2900000000815250601c0190506040518091039020612c4b565b9650610a678888612c6890919063ffffffff16565b610a7e604060010288612c6890919063ffffffff16565b610a95600260010288612c6890919063ffffffff16565b610add60405180807f63726f776473616c655f73746172745f74696d650000000000000000000000008152506014019050604051809103902088612c6890919063ffffffff16565b610b2560405180807f746f6b656e5f6e616d6500000000000000000000000000000000000000000000815250600a019050604051809103902088612c6890919063ffffffff16565b610b2e87612c93565b955060028651141515610b3d57fe5b4260010260001916866000815181101515610b5457fe5b90602001906020020151600019161080610b8d57506000600102866001815181101515610b7d57fe5b9060200190602002015160001916145b15610bc057610bbf7f43726f776473616c65537461727465644f72546f6b656e4e6f74496e6974000060001916612d15565b5b610bd660008089612d1f9092919063ffffffff16565b610c2360405180807f63726f776473616c655f69735f696e6974000000000000000000000000000000815250601101905060405180910390206001800289612d389092919063ffffffff16565b610c2c87612d6f565b98505050505050505050919050565b606060008060006060610c4d86612b7c565b508095508194505050610c9460405180807f726561644d756c746928627974657333322c627974657333325b5d2900000000815250601c0190506040518091039020612c4b565b9150610ca98383612c6890919063ffffffff16565b610cc0604060010283612c6890919063ffffffff16565b610cd7600360010283612c6890919063ffffffff16565b610d1f60405180807f61646d696e0000000000000000000000000000000000000000000000000000008152506005019050604051809103902083612c6890919063ffffffff16565b610d6760405180807f63726f776473616c655f69735f696e69740000000000000000000000000000008152506011019050604051809103902083612c6890919063ffffffff16565b610daf60405180807f63726f776473616c655f69735f66696e616c697a6564000000000000000000008152506016019050604051809103902083612c6890919063ffffffff16565b610db882612c93565b905060038151141515610dc757fe5b8373ffffffffffffffffffffffffffffffffffffffff1660010260001916816000815181101515610df457fe5b9060200190602002015160001916141580610e2e57506000600102816001815181101515610e1e57fe5b9060200190602002015160001916145b80610e5b57506001800260001916816002815181101515610e4b57fe5b9060200190602002015160001916145b15610e8e57610e8d7f4e6f7441646d696e4f72537461747573496e76616c696400000000000000000060001916612d15565b5b610ea460008084612d1f9092919063ffffffff16565b610ef160405180807f63726f776473616c655f69735f66696e616c697a656400000000000000000000815250601601905060405180910390206001800284612d389092919063ffffffff16565b610efa82612d6f565b945050505050919050565b606060008060006060610f16612dc0565b60008c518e51141580610f2b57508b518e5114155b80610f3857508a518e5114155b80610f45575089518e5114155b80610f52575088518a5114155b80610f5e575060008e51145b15610f9157610f907f41727261794c656e4d69736d617463680000000000000000000000000000000060001916612d15565b5b610f9a88612b7c565b508097508196505050610fe160405180807f726561644d756c746928627974657333322c627974657333325b5d2900000000815250601c0190506040518091039020612c4b565b9350610ff68585612c6890919063ffffffff16565b61100d604060010285612c6890919063ffffffff16565b611024600460010285612c6890919063ffffffff16565b61106c60405180807f63726f776473616c655f746f74616c5f6475726174696f6e00000000000000008152506018019050604051809103902085612c6890919063ffffffff16565b6110b460405180807f63726f776473616c655f746965725f6c697374000000000000000000000000008152506013019050604051809103902085612c6890919063ffffffff16565b6110fc60405180807f63726f776473616c655f69735f696e69740000000000000000000000000000008152506011019050604051809103902085612c6890919063ffffffff16565b61114460405180807f61646d696e0000000000000000000000000000000000000000000000000000008152506005019050604051809103902085612c6890919063ffffffff16565b61114d84612c93565b92506004835114151561115c57fe5b60606040519081016040528084600081518110151561117757fe5b9060200190602002015160019004815260200184600181518110151561119957fe5b906020019060200201516001900481526020016000815250915060006001028360028151811015156111c757fe5b906020019060200201516000191614158061121b57508573ffffffffffffffffffffffffffffffffffffffff166001026000191683600381518110151561120a57fe5b906020019060200201516000191614155b1561124e5761124d7f4e6f7441646d696e4f7253616c654973496e697400000000000000000000000060001916612d15565b5b611259600080612d92565b93506112af60405180807f63726f776473616c655f746965725f6c69737400000000000000000000000000815250601301905060405180910390208f5184602001510160010286612d389092919063ffffffff16565b60405180807f63726f776473616c655f746965725f6c697374000000000000000000000000008152506013019050604051809103902060019004826020015160c00260200101826040018181525050600090505b8d5181101561155d5760008b8281518110151561131c57fe5b906020019060200201511480611353575081600001518d8281518110151561134057fe5b9060200190602002015183600001510111155b80611375575060008c8281518110151561136957fe5b90602001906020020151145b156113a8576113a77f496e76616c69645469657256616c73000000000000000000000000000000000060001916612d15565b5b8c818151811015156113b657fe5b9060200190602002015182600001818151019150818152505061140282604001516001028f838151811015156113e857fe5b9060200190602002015186612d389092919063ffffffff16565b61143b82604001516020016001028c8381518110151561141e57fe5b9060200190602002015160010286612d389092919063ffffffff16565b61147482604001516040016001028d8381518110151561145757fe5b9060200190602002015160010286612d389092919063ffffffff16565b6114ad82604001516060016001028e8381518110151561149057fe5b9060200190602002015160010286612d389092919063ffffffff16565b6114f682604001516080016001028b838151811015156114c957fe5b906020019060200201516114e15760006001026114e6565b600180025b86612d389092919063ffffffff16565b61153f826040015160a0016001028a8381518110151561151257fe5b9060200190602002015161152a57600060010261152f565b600180025b86612d389092919063ffffffff16565b60c08260400181815101915081815250508080600101915050611303565b6115ae60405180807f63726f776473616c655f746f74616c5f6475726174696f6e000000000000000081525060180190506040518091039020836000015160010286612d389092919063ffffffff16565b6115b784612d6f565b9650505050505050979650505050505050565b6060600080600060606115db612de2565b6000606060008a1415611616576116157f496e76616c69644475726174696f6e000000000000000000000000000000000060001916612d15565b5b61161f89612b7c565b50809850819750505061166660405180807f726561644d756c746928627974657333322c627974657333325b5d2900000000815250601c0190506040518091039020612c4b565b945061167b8686612c6890919063ffffffff16565b611692604060010286612c6890919063ffffffff16565b6116a9600960010286612c6890919063ffffffff16565b6116f160405180807f61646d696e0000000000000000000000000000000000000000000000000000008152506005019050604051809103902086612c6890919063ffffffff16565b61173960405180807f63726f776473616c655f69735f66696e616c697a6564000000000000000000008152506016019050604051809103902086612c6890919063ffffffff16565b61178160405180807f63726f776473616c655f73746172745f74696d650000000000000000000000008152506014019050604051809103902086612c6890919063ffffffff16565b6117c960405180807f63726f776473616c655f746f74616c5f6475726174696f6e00000000000000008152506018019050604051809103902086612c6890919063ffffffff16565b61181160405180807f63726f776473616c655f746965725f6c697374000000000000000000000000008152506013019050604051809103902086612c6890919063ffffffff16565b61185960405180807f63726f776473616c655f63757272656e745f74696572000000000000000000008152506016019050604051809103902086612c6890919063ffffffff16565b6118a160405180807f63726f776473616c655f746965725f656e64735f6174000000000000000000008152506016019050604051809103902086612c6890919063ffffffff16565b6118f860405180807f63726f776473616c655f746965725f6c6973740000000000000000000000000081525060130190506040518091039020600190048c60c0026080010160010286612c6890919063ffffffff16565b61194f60405180807f63726f776473616c655f746965725f6c6973740000000000000000000000000081525060130190506040518091039020600190048c60c00260a0010160010286612c6890919063ffffffff16565b61195885612c93565b93506009845114151561196757fe5b60806040519081016040528085600281518110151561198257fe5b906020019060200201516001900481526020018560038151811015156119a457fe5b906020019060200201516001900481526020018560068151811015156119c657fe5b906020019060200201516001900481526020018560078151811015156119e857fe5b906020019060200201516001900481525092508983606001511415611a3557611a347f4475726174696f6e556e6368616e67656400000000000000000000000000000060001916612d15565b5b826060015183602001511015611a7357611a727f546f74616c4475726174696f6e496e76616c696400000000000000000000000060001916612d15565b5b8673ffffffffffffffffffffffffffffffffffffffff1660010260001916846000815181101515611aa057fe5b9060200190602002015160001916141580611adb57506000600102846001815181101515611aca57fe5b906020019060200201516000191614155b80611b0257508a846004815181101515611af157fe5b906020019060200201516001900411155b80611b2c57506000600102846005815181101515611b1c57fe5b9060200190602002015160001916145b80611b5557508a6001856005815181101515611b4457fe5b906020019060200201516001900403115b80611b8b57508a6001856005815181101515611b6d57fe5b906020019060200201516001900403148015611b8a575060008b14155b5b80611bb557506000600102846008815181101515611ba557fe5b9060200190602002015160001916145b15611be857611be77f496e76616c696443726f776473616c655374617475730000000000000000000060001916612d15565b5b60008b148015611c1a57506001800260001916846005815181101515611c0a57fe5b9060200190602002015160001916145b15611cc857826000015142101515611c5a57611c597f43616e6e6f744d6f6469667943757272656e745469657200000000000000000060001916612d15565b5b611c7060008087612d1f9092919063ffffffff16565b611cc360405180807f63726f776473616c655f746965725f656e64735f6174000000000000000000008152506016019050604051809103902084600001518c0160010287612d389092919063ffffffff16565b611f7f565b6001846005815181101515611cd957fe5b9060200190602002015160019004038b118015611cfa575082604001514210155b15611efe57611d3d60405180807f726561644d756c746928627974657333322c627974657333325b5d2900000000815250601c0190506040518091039020612c4b565b9450611d528686612c6890919063ffffffff16565b611d69604060010286612c6890919063ffffffff16565b611d9d846005815181101515611d7b57fe5b90602001906020020151600190048c0360010286612c6890919063ffffffff16565b836005815181101515611dac57fe5b906020019060200201516001900491505b8a821015611e2957611e1c60405180807f63726f776473616c655f746965725f6c6973740000000000000000000000000081525060130190506040518091039020600190048360c0026080010160010286612c6890919063ffffffff16565b8180600101925050611dbd565b611e3a611e3586612c93565b612db6565b9050836005815181101515611e4b57fe5b90602001906020020151600190048b038151141515611e6657fe5b600091505b8051821015611ea8578082815181101515611e8257fe5b906020019060200201518360400181815101915081815250508180600101925050611e6b565b826040015142111515611ee357611ee27f43616e6e6f744d6f6469667943757272656e745469657200000000000000000060001916612d15565b5b611ef960008087612d1f9092919063ffffffff16565b611f7e565b6001846005815181101515611f0f57fe5b9060200190602002015160019004038b118015611f2f5750826040015142105b15611f4f57611f4a60008087612d1f9092919063ffffffff16565b611f7d565b611f7c7f496e76616c69645374617465000000000000000000000000000000000000000060001916612d15565b5b5b5b8983606001511115611fa65789836060015103836020018181510391508181525050611fbd565b82606001518a038360200181815101915081815250505b61201960405180807f63726f776473616c655f746965725f6c6973740000000000000000000000000081525060130190506040518091039020600190048c60c002608001016001028b60010287612d389092919063ffffffff16565b61206a60405180807f63726f776473616c655f746f74616c5f6475726174696f6e000000000000000081525060180190506040518091039020846020015160010287612d389092919063ffffffff16565b61207385612d6f565b9750505050505050509392505050565b60606000826000806000606061209885612b7c565b5080955081945050506120df60405180807f726561644d756c746928627974657333322c627974657333325b5d2900000000815250601c0190506040518091039020612c4b565b91506120f48383612c6890919063ffffffff16565b61210b604060010283612c6890919063ffffffff16565b612122600260010283612c6890919063ffffffff16565b61216a60405180807f61646d696e0000000000000000000000000000000000000000000000000000008152506005019050604051809103902083612c6890919063ffffffff16565b6121b260405180807f63726f776473616c655f69735f696e69740000000000000000000000000000008152506011019050604051809103902083612c6890919063ffffffff16565b6121bb82612c93565b9050600281511415156121ca57fe5b8373ffffffffffffffffffffffffffffffffffffffff16600102600019168160008151811015156121f757fe5b90602001906020020151600019161415806122325750600060010281600181518110151561222157fe5b906020019060200201516000191614155b15612265576122647f4e6f7441646d696e4f7253616c654973496e697400000000000000000000000060001916612d15565b5b612270600080612d92565b95506122bf60405180807f63726f776473616c655f6d696e5f636170000000000000000000000000000000815250601101905060405180910390208a60010288612d389092919063ffffffff16565b6122c886612d6f565b965050505050505092915050565b60606000806000606060008060008a518c511415806122f7575089518c5114155b80612303575060008c51145b15612336576123357f4d69736d617463686564496e7075744c656e677468730000000000000000000060001916612d15565b5b61233f89612b7c565b50809850819750505061238660405180807f726561644d756c746928627974657333322c627974657333325b5d2900000000815250601c0190506040518091039020612c4b565b945061239b8686612c6890919063ffffffff16565b6123b2604060010286612c6890919063ffffffff16565b6123c9600260010286612c6890919063ffffffff16565b61241160405180807f61646d696e0000000000000000000000000000000000000000000000000000008152506005019050604051809103902086612c6890919063ffffffff16565b61247e8d60405180807f63726f776473616c655f70757263686173655f77686974656c69737400000000815250601c019050604051809103902060405180838152602001826000191660001916815260200192505050604051809103902086612c6890919063ffffffff16565b61248785612c93565b93506002845114151561249657fe5b8673ffffffffffffffffffffffffffffffffffffffff16600102600019168460008151811015156124c357fe5b9060200190602002015160001916141515612506576125057f53656e64657249734e6f7441646d696e0000000000000000000000000000000060001916612d15565b5b83600181518110151561251557fe5b9060200190602002015160019004925061253b60008087612d1f9092919063ffffffff16565b600091505b8b518210156127ab578b8281518110151561255757fe5b90602001906020020151604051808273ffffffffffffffffffffffffffffffffffffffff1673ffffffffffffffffffffffffffffffffffffffff166c0100000000000000000000000002815260140191505060405180910390208d60405180807f63726f776473616c655f70757263686173655f77686974656c69737400000000815250601c019050604051809103902060405180838152602001826000191660001916815260200192505050604051809103902060405180836000191660001916815260200182600019166000191681526020019250505060405180910390209050612669818c8481518110151561264c57fe5b9060200190602002015160010287612d389092919063ffffffff16565b6126a281600190046020016001028b8481518110151561268557fe5b9060200190602002015160010287612d389092919063ffffffff16565b60008b838151811015156126b257fe5b90602001906020020151141580156126e2575060008a838151811015156126d557fe5b9060200190602002015114155b1561279e576127958d60405180807f63726f776473616c655f70757263686173655f77686974656c69737400000000815250601c01905060405180910390206040518083815260200182600019166000191681526020019250505060405180910390206001900484602002602001016001028d8481518110151561276257fe5b9060200190602002015173ffffffffffffffffffffffffffffffffffffffff1660010287612d389092919063ffffffff16565b82806001019350505b8180600101925050612540565b61281d8d60405180807f63726f776473616c655f70757263686173655f77686974656c69737400000000815250601c01905060405180910390206040518083815260200182600019166000191681526020019250505060405180910390208460010287612d389092919063ffffffff16565b61282685612d6f565b97505050505050505095945050505050565b60606000826000806000606061284d85612b7c565b50809550819450505061289460405180807f726561644d756c746928627974657333322c627974657333325b5d2900000000815250601c0190506040518091039020612c4b565b91506128a98383612c6890919063ffffffff16565b6128c0604060010283612c6890919063ffffffff16565b6128d7600260010283612c6890919063ffffffff16565b61291f60405180807f61646d696e0000000000000000000000000000000000000000000000000000008152506005019050604051809103902083612c6890919063ffffffff16565b61296760405180807f63726f776473616c655f69735f696e69740000000000000000000000000000008152506011019050604051809103902083612c6890919063ffffffff16565b61297082612c93565b90506002815114151561297f57fe5b8373ffffffffffffffffffffffffffffffffffffffff16600102600019168160008151811015156129ac57fe5b90602001906020020151600019161415806129e7575060006001028160018151811015156129d657fe5b906020019060200201516000191614155b15612a1a57612a197f4e6f7441646d696e4f7253616c654973496e697400000000000000000000000060001916612d15565b5b60006001028b600019161480612a37575060006001028a60001916145b80612a425750601289115b15612a7557612a747f496d70726f706572496e697469616c697a6174696f6e0000000000000000000060001916612d15565b5b612a80600080612d92565b9550612acc60405180807f746f6b656e5f6e616d6500000000000000000000000000000000000000000000815250600a01905060405180910390208c88612d389092919063ffffffff16565b612b1660405180807f746f6b656e5f73796d626f6c0000000000000000000000000000000000000000815250600c01905060405180910390208b88612d389092919063ffffffff16565b612b6360405180807f746f6b656e5f646563696d616c73000000000000000000000000000000000000815250600e01905060405180910390208a60010288612d389092919063ffffffff16565b612b6c86612d6f565b9650505050505050949350505050565b600080600060608451141515612bba57612bb97f556e6b6e6f776e457865637574696f6e436f6e7465787400000000000000000060001916612d15565b5b836020015192508360400151915083606001519050600073ffffffffffffffffffffffffffffffffffffffff168273ffffffffffffffffffffffffffffffffffffffff161480612c11575060006001028360001916145b15612c4457612c437f556e6b6e6f776e457865637574696f6e436f6e7465787400000000000000000060001916612d15565b5b9193909250565b600060405190506004815281816020015280604001604052919050565b815160200181818401528083528083602001016040511015612c8e578083602c01016040525b505050565b60606000608483511015612ca657600080fd5b600080845185602001335afa90506000811115612cda57825160203d031115612cce57600080fd5b60203d036020843e8291505b801515612d0f57612d0e7f53746f72616765526561644661696c656400000000000000000000000000000060001916612d15565b5b50919050565b8060005260206000fd5b6040835281836020015280836040015259604052505050565b8251602001828185015280602001905081818501528084528084602001016040511015612d69578084604001016040525b50505050565b6060600060208351061115612d8357600080fd5b60208251048252819050919050565b60006040519050604081528281602001528181604001528060600160405292915050565b6060819050919050565b6060604051908101604052806000815260200160008152602001600081525090565b6080604051908101604052806000815260200160008152602001600081526020016000815250905600a165627a7a7230582012fd70fd58b617d9336e9bf950b0ad12c57a64f18774eed3f21de0737f5495160029",
  "source": "pragma solidity ^0.4.23;\n\nimport \"../lib/MemoryBuffers.sol\";\nimport \"../lib/ArrayUtils.sol\";\n\nlibrary CrowdsaleConsole {\n\n  using MemoryBuffers for uint;\n  using ArrayUtils for bytes32[];\n  using Exceptions for bytes32;\n\n  /// CROWDSALE STORAGE ///\n\n  // Storage location of crowdsale admin address\n  bytes32 internal constant ADMIN = keccak256(\"admin\");\n\n  // Whether the crowdsale and token are initialized, and the sale is ready to run\n  bytes32 internal constant CROWDSALE_IS_INIT = keccak256(\"crowdsale_is_init\");\n\n  // Whether or not the crowdsale is post-purchase\n  bytes32 internal constant CROWDSALE_IS_FINALIZED = keccak256(\"crowdsale_is_finalized\");\n\n  // Storage location of the crowdsale's start time\n  bytes32 internal constant CROWDSALE_START_TIME = keccak256(\"crowdsale_start_time\");\n\n  // Storage location of the amount of time the crowdsale will take, accounting for all tiers\n  bytes32 internal constant CROWDSALE_TOTAL_DURATION = keccak256(\"crowdsale_total_duration\");\n\n  // Storage location of the minimum amount of tokens allowed to be purchased\n  bytes32 internal constant CROWDSALE_MINIMUM_CONTRIBUTION = keccak256(\"crowdsale_min_cap\");\n\n  // Storage location of a list of the tiers the crowdsale will have\n  /* Each tier mimics the following struct:\n  struct CrowdsaleTier {\n    bytes32 _tier_name;                 // The name of the crowdsale tier\n    uint _tier_token_sell_cap;          // The maximum number of tokens that will be sold during this tier\n    uint _tier_purchase_price;          // The price of a token in wei for this tier\n    uint _duration;                     // The amount of time this tier will be active for\n    bool _tier_duration_is_modifiable;  // Whether the crowdsale admin is allowed to modify the duration of a tier before it goes live\n    bool _tier_is_whitelist_enabled     // Whether this tier of the crowdsale requires users to be on a purchase whitelist\n  }\n  */\n  bytes32 internal constant CROWDSALE_TIERS = keccak256(\"crowdsale_tier_list\");\n\n  // Storage location of the CROWDSALE_TIERS index of the current tier. Return value minus 1 is the actual index of the tier. 0 is an invalid return\n  bytes32 internal constant CROWDSALE_CURRENT_TIER = keccak256(\"crowdsale_current_tier\");\n\n  // Storage location of the end time of the current tier. Purchase attempts beyond this time will update the current tier (if another is available)\n  bytes32 internal constant CURRENT_TIER_ENDS_AT = keccak256(\"crowdsale_tier_ends_at\");\n\n  // Storage seed for crowdsale whitelist mappings - maps each tier's index to a mapping of addresses to whtielist information\n  /* Each whitelist entry mimics this struct:\n  struct WhitelistListing {\n    uint minimum_contribution;\n    uint max_contribution;\n  }\n  */\n  bytes32 internal constant SALE_WHITELIST = keccak256(\"crowdsale_purchase_whitelist\");\n\n  /// TOKEN STORAGE ///\n\n  // Storage location for token name\n  bytes32 internal constant TOKEN_NAME = keccak256(\"token_name\");\n\n  // Storage location for token ticker symbol\n  bytes32 internal constant TOKEN_SYMBOL = keccak256(\"token_symbol\");\n\n  // Storage location for token decimals\n  bytes32 internal constant TOKEN_DECIMALS = keccak256(\"token_decimals\");\n\n  /// FUNCTION SELECTORS ///\n\n  // Function selector for storage \"read\"\n  // read(bytes32 _exec_id, bytes32 _location) view returns (bytes32 data_read);\n  bytes4 internal constant RD_SING = bytes4(keccak256(\"read(bytes32,bytes32)\"));\n\n  // Function selector for storage 'readMulti'\n  // readMulti(bytes32 exec_id, bytes32[] locations)\n  bytes4 internal constant RD_MULTI = bytes4(keccak256(\"readMulti(bytes32,bytes32[])\"));\n\n  // Modifier - will only allow access to a crowdsale's admin address\n  // Additionally, crowdsale must not be initialized\n  modifier onlyAdminAndNotInit(bytes memory _context) {\n    // Get sender and exec id for this instance\n    address sender;\n    bytes32 exec_id;\n    (exec_id, sender, ) = parse(_context);\n\n    // Create 'readMulti' calldata buffer in memory\n    uint ptr = MemoryBuffers.cdBuff(RD_MULTI);\n    // Place exec id, data read offset, and read size in buffer\n    ptr.cdPush(exec_id);\n    ptr.cdPush(0x40);\n    ptr.cdPush(bytes32(2));\n    // Place admin storage location and crowdsale status storage location in calldata\n    ptr.cdPush(ADMIN);\n    ptr.cdPush(CROWDSALE_IS_INIT);\n    // Read from storage, and store return to buffer\n    bytes32[] memory read_values = ptr.readMulti();\n    // Ensure correct return length\n    assert(read_values.length == 2);\n\n    // Check that the sender is the admin address and that the crowdsale is not yet initialized\n    if (read_values[0] != bytes32(sender) || read_values[1] != 0)\n      bytes32(\"NotAdminOrSaleIsInit\").trigger();\n\n    // All checks passed - sender is crowdsale admin, and crowdsale is not initialized\n    _;\n  }\n\n  /*\n  Allows the admin of a crowdsale to add token information, prior to crowdsale initialization completion\n\n  @param _name: The name of the token to initialize\n  @param _symbol: The ticker symbol of the token to initialize\n  @param _context: The execution context for this application - a 96-byte array containing (in order):\n    1. Application execution id\n    2. Original script sender (address, padded to 32 bytes)\n    3. Wei amount sent with transaction to storage\n  @return store_data: A formatted storage request - first 64 bytes designate a forwarding address (and amount) for any wei sent\n  */\n  function initCrowdsaleToken(bytes32 _name, bytes32 _symbol, uint _decimals, bytes memory _context) public onlyAdminAndNotInit(_context) view\n  returns (bytes32[] memory store_data) {\n    // Ensure valid input\n    if (\n      _name == 0\n      || _symbol == 0\n      || _decimals > 18\n    ) bytes32(\"ImproperInitialization\").trigger();\n\n    // Create memory buffer for return data\n    uint ptr = MemoryBuffers.stBuff(0, 0);\n\n    // Place token name, symbol, and decimals in return data buffer\n    ptr.stPush(TOKEN_NAME, _name);\n    ptr.stPush(TOKEN_SYMBOL, _symbol);\n    ptr.stPush(TOKEN_DECIMALS, bytes32(_decimals));\n\n    // Get bytes32[] storage request array from buffer\n    store_data = ptr.getBuffer();\n  }\n\n  /*\n  Allows the admin of a crowdsale to update the global minimum contribution amount in tokens for a crowdsale prior to its start\n\n  @param _new_min_contribution: The new minimum amount of tokens that must be bought for the crowdsale\n  @param _context: The execution context for this application - a 96-byte array containing (in order):\n    1. Application execution id\n    2. Original script sender (address, padded to 32 bytes)\n    3. Wei amount sent with transaction to storage\n  @return store_data: A formatted storage request - first 64 bytes designate a forwarding address (and amount) for any wei sent\n  */\n  function updateGlobalMinContribution(uint _new_min_contribution, bytes memory _context) public onlyAdminAndNotInit(_context) view\n  returns (bytes32[] memory store_data) {\n    // Create memory buffer for return data\n    uint ptr = MemoryBuffers.stBuff(0, 0);\n\n    // Place new crowdsale minimum wei contribution cap and min cap storage location in buffer\n    ptr.stPush(CROWDSALE_MINIMUM_CONTRIBUTION, bytes32(_new_min_contribution));\n\n    // Get bytes32[] storage request array from buffer\n    store_data = ptr.getBuffer();\n  }\n\n  /*\n  Allows the admin of a crowdsale to update the whitelist status for several addresses simultaneously within a tier\n\n  @param _tier_index: The index of the tier to update the whitelist for\n  @param _to_update: An array of addresses for which whitelist status will be updated\n  @param _minimum_contribution: The minimum contribution amount for the given address during the tier\n  @param _max_spend_amt: The maximum amount of wei able to be spent for the address during this tier\n  @param _context: The execution context for this application - a 96-byte array containing (in order):\n    1. Application execution id\n    2. Original script sender (address, padded to 32 bytes)\n    3. Wei amount sent with transaction to storage\n  @return store_data: A formatted storage request - first 64 bytes designate a forwarding address (and amount) for any wei sent\n  */\n  function whitelistMultiForTier(\n    uint _tier_index,\n    address[] memory _to_update,\n    uint[] memory _minimum_contribution,\n    uint[] memory _max_spend_amt,\n    bytes memory _context\n  ) public view returns (bytes32[] memory store_data) {\n    // Ensure valid input\n    if (\n      _to_update.length != _minimum_contribution.length\n      || _to_update.length != _max_spend_amt.length\n      || _to_update.length == 0\n    ) bytes32(\"MismatchedInputLengths\").trigger();\n\n    // Get sender and exec id from context\n    address sender;\n    bytes32 exec_id;\n    (exec_id, sender, ) = parse(_context);\n\n    /// Read crowdsale admin address and tier whitelist array length from storage -\n\n    // Create 'readMulti' calldata buffer in memory\n    uint ptr = MemoryBuffers.cdBuff(RD_MULTI);\n    // Push exec id, data read offset, and read size to buffer\n    ptr.cdPush(exec_id);\n    ptr.cdPush(0x40);\n    ptr.cdPush(bytes32(2));\n    // Push admin address storage location to buffer\n    ptr.cdPush(ADMIN);\n    // Push tier whitelist array length storage location to buffer\n    ptr.cdPush(keccak256(_tier_index, SALE_WHITELIST));\n    // Read from storage\n    bytes32[] memory read_values = ptr.readMulti();\n    // Ensure correct return length\n    assert(read_values.length == 2);\n\n    // If the first returned value is not equal to the sender's address, sender is not the crowdsale admin\n    if (read_values[0] != bytes32(sender))\n      bytes32(\"SenderIsNotAdmin\").trigger();\n\n    // Get tier whitelist length\n    uint tier_whitelist_length = uint(read_values[1]);\n\n    /// Sender is crowdsale admin - create storage return request and append whitelist updates\n\n    // Overwrite previous buffer with storage buffer\n    ptr.stOverwrite(0, 0);\n\n    // Loop over input and add whitelist storage information to buffer\n    for (uint i = 0; i < _to_update.length; i++) {\n      // Get storage location for address whitelist struct\n      bytes32 whitelist_status_loc = keccak256(keccak256(_to_update[i]), keccak256(_tier_index, SALE_WHITELIST));\n      ptr.stPush(whitelist_status_loc, bytes32(_minimum_contribution[i]));\n      ptr.stPush(bytes32(32 + uint(whitelist_status_loc)), bytes32(_max_spend_amt[i]));\n\n      // Push whitelisted address to end of tier whitelist array, unless the values being pushed are zero\n      if (_minimum_contribution[i] != 0 && _max_spend_amt[i] != 0) {\n        ptr.stPush(\n          bytes32(32 + (32 * tier_whitelist_length) + uint(keccak256(_tier_index, SALE_WHITELIST))),\n          bytes32(_to_update[i])\n        );\n        // Increment tier whitelist\n        tier_whitelist_length++;\n      }\n    }\n\n    // Store new tier whitelist length\n    ptr.stPush(keccak256(_tier_index, SALE_WHITELIST), bytes32(tier_whitelist_length));\n    // Get bytes32[] storage request array from buffer\n    store_data = ptr.getBuffer();\n  }\n\n  struct TiersHelper {\n    uint total_duration;\n    uint num_tiers;\n    uint base_list_storage;\n  }\n\n  /*\n  Allows the admin to create new tiers for the crowdsale and append them to the end of the list of crowdsale tiers\n  Each tier added will begin once the previous tier added ends\n\n  @param _tier_names: An array of names for each tier\n  @param _tier_durations: An array of durations each tier will last\n  @param _tier_prices: Each tier's token purchase price, in wei\n  @param _tier_caps: The maximum amount of tokens to be sold during each tier\n  @param _tier_is_modifiable: Whether each tier's duration may be changed prior to its start time\n  @param _tier_is_whitelisted: Whether each tier requires purchasers to be whitelisted\n  @param _context: The execution context for this application - a 96-byte array containing (in order):\n    1. Application execution id\n    2. Original script sender (address, padded to 32 bytes)\n    3. Wei amount sent with transaction to storage\n  @return store_data: A formatted storage request - first 64 bytes designate a forwarding address (and amount) for any wei sent\n  */\n  function createCrowdsaleTiers(\n    bytes32[] memory _tier_names,\n    uint[] memory _tier_durations,\n    uint[] memory _tier_prices,\n    uint[] memory _tier_caps,\n    bool[] memory _tier_is_modifiable,\n    bool[] memory _tier_is_whitelisted,\n    bytes memory _context)\n    public view returns (bytes32[] memory store_data) {\n    // Ensure valid input\n    if (\n      _tier_names.length != _tier_durations.length\n      || _tier_names.length != _tier_prices.length\n      || _tier_names.length != _tier_caps.length\n      || _tier_names.length != _tier_is_modifiable.length\n      || _tier_is_modifiable.length != _tier_is_whitelisted.length\n      || _tier_names.length == 0\n    ) bytes32(\"ArrayLenMismatch\").trigger();\n\n    // Get sender and exec id from context\n    address sender;\n    bytes32 exec_id;\n    (exec_id, sender, ) = parse(_context);\n\n    // Create 'readMulti' calldata buffer in memory\n    uint ptr = MemoryBuffers.cdBuff(RD_MULTI);\n    // Push exec id, data read offset, and read size to buffer\n    ptr.cdPush(exec_id);\n    ptr.cdPush(0x40);\n    ptr.cdPush(bytes32(4));\n    // Push read locations to buffer: total duration, and tier list length\n    ptr.cdPush(CROWDSALE_TOTAL_DURATION);\n    ptr.cdPush(CROWDSALE_TIERS);\n    // Push crowdsale initialization status and admin address storage locations to buffer\n    ptr.cdPush(CROWDSALE_IS_INIT);\n    ptr.cdPush(ADMIN);\n    // Read from storage, and return data to buffer\n    bytes32[] memory read_values = ptr.readMulti();\n    // Ensure correct return length\n    assert(read_values.length == 4);\n\n    // Get current number of tiers and total duration\n    TiersHelper memory tiers = TiersHelper({\n      total_duration: uint(read_values[0]),\n      num_tiers: uint(read_values[1]),\n      base_list_storage: 0\n    });\n\n    // Check that the sender is the crowdsale admin, and that the crowdsale is not initialized\n    if (\n      read_values[2] != 0\n      || read_values[3] != bytes32(sender)\n    ) bytes32(\"NotAdminOrSaleIsInit\").trigger();\n\n    // Create storage return buffer in free memory\n    ptr = MemoryBuffers.stBuff(0, 0);\n\n    // Push new tier list length to buffer\n    ptr.stPush(CROWDSALE_TIERS, bytes32(tiers.num_tiers + _tier_names.length));\n\n    // Place crowdsale tier storage base location in tiers struct\n    tiers.base_list_storage = 32 + (192 * tiers.num_tiers) + uint(CROWDSALE_TIERS);\n    // Loop over each new tier, and add to storage buffer. Keep track of the added duration\n    for (uint i = 0; i < _tier_names.length; i++) {\n      // Ensure valid input -\n      if (\n        _tier_caps[i] == 0\n        || tiers.total_duration + _tier_durations[i] <= tiers.total_duration\n        || _tier_prices[i] == 0\n      ) bytes32(\"InvalidTierVals\").trigger();\n\n      // Increment total duration of the crowdsale\n      tiers.total_duration += _tier_durations[i];\n      // Push name, token sell cap, initial duration, and modifiability to storage buffer\n      ptr.stPush(bytes32(tiers.base_list_storage), _tier_names[i]);\n      ptr.stPush(bytes32(32 + tiers.base_list_storage), bytes32(_tier_caps[i]));\n      ptr.stPush(bytes32(64 + tiers.base_list_storage), bytes32(_tier_prices[i]));\n      ptr.stPush(bytes32(96 + tiers.base_list_storage), bytes32(_tier_durations[i]));\n      ptr.stPush(bytes32(128 + tiers.base_list_storage), _tier_is_modifiable[i] ? bytes32(1) : bytes32(0));\n      ptr.stPush(bytes32(160 + tiers.base_list_storage), _tier_is_whitelisted[i] ? bytes32(1) : bytes32(0));\n\n      // Increment base storage location -\n      tiers.base_list_storage += 192;\n    }\n    // Push new total crowdsale duration to storage buffer\n    ptr.stPush(CROWDSALE_TOTAL_DURATION, bytes32(tiers.total_duration));\n\n    // Get bytes32[] storage request array from buffer\n    store_data = ptr.getBuffer();\n  }\n\n  struct TierUpdate {\n    uint crowdsale_starts_at;\n    uint total_duration;\n    uint cur_tier_end_time;\n    uint prev_duration;\n  }\n\n  /*\n  Allows the admin of a crowdsale to update the duration of a tier, provided it has not already begun, and was marked as modifiable during the initialization process\n\n  @param _tier_index: The index of the tier whose duration will be updated (indexes in the tier list are 1-indexed: 0 is an invalid index)\n  @param _new_duration: The new duration for the tier\n  @param _context: The execution context for this application - a 96-byte array containing (in order):\n    1. Application execution id\n    2. Original script sender (address, padded to 32 bytes)\n    3. Wei amount sent with transaction to storage\n  @return store_data: A formatted storage request - first 64 bytes designate a forwarding address (and amount) for any wei sent\n  */\n  function updateTierDuration(uint _tier_index, uint _new_duration, bytes memory _context) public view returns (bytes32[] memory store_data) {\n    // Ensure valid input\n    if (_new_duration == 0)\n      bytes32(\"InvalidDuration\").trigger();\n\n    // Get sender address and exec id from context\n    address sender;\n    bytes32 exec_id;\n    (exec_id, sender, ) = parse(_context);\n\n    /// Set up read from storage - reading crowdsale status and tier info:\n\n    // Create 'readMulti' calldata buffer in memory\n    uint ptr = MemoryBuffers.cdBuff(RD_MULTI);\n    // Push exec id, data read offset, and read size to buffer\n    ptr.cdPush(exec_id);\n    ptr.cdPush(0x40);\n    ptr.cdPush(bytes32(9));\n    // Push crowdsale status storage locations to buffer -\n    ptr.cdPush(ADMIN);\n    ptr.cdPush(CROWDSALE_IS_FINALIZED);\n    ptr.cdPush(CROWDSALE_START_TIME);\n    ptr.cdPush(CROWDSALE_TOTAL_DURATION);\n    // Push current tier info storage locations to buffer -\n    ptr.cdPush(CROWDSALE_TIERS);\n    ptr.cdPush(CROWDSALE_CURRENT_TIER);\n    ptr.cdPush(CURRENT_TIER_ENDS_AT);\n    // Push storage locations of information of the tier to be updated (tier duration and tier modifiability status)\n    ptr.cdPush(bytes32(128 + (192 * _tier_index) + uint(CROWDSALE_TIERS)));\n    ptr.cdPush(bytes32(160 + (192 * _tier_index) + uint(CROWDSALE_TIERS)));\n    // Read from storage, and store return to buffer\n    bytes32[] memory read_values = ptr.readMulti();\n    // Ensure correct return length\n    assert(read_values.length == 9);\n\n    // Get TierUpdate struct from returned data\n    TierUpdate memory tier_update = TierUpdate({\n      crowdsale_starts_at: uint(read_values[2]),\n      total_duration: uint(read_values[3]),\n      cur_tier_end_time: uint(read_values[6]),\n      prev_duration: uint(read_values[7])\n    });\n\n    // Ensure an update is being performed\n    if (tier_update.prev_duration == _new_duration)\n      bytes32(\"DurationUnchanged\").trigger();\n    // Total crowdsale duration should always be minimum the previous duration for the tier to update\n    if (tier_update.total_duration < tier_update.prev_duration)\n      bytes32(\"TotalDurationInvalid\").trigger();\n\n    // Check returned values for valid crowdsale and tier status -\n    if (\n      read_values[0] != bytes32(sender)                   // Sender is not the crowdsale admin\n      || read_values[1] != 0                              // Crowdsale is already finalized\n      || uint(read_values[4]) <= _tier_index              // Passed-in tier index is out of range\n      || read_values[5] == 0                              // Invalid return for 'current crowdsale tier index' - should always be nonzero\n      || uint(read_values[5]) - 1 > _tier_index           // Current crowdsale tier is already past requested index (trying to modify a previous tier)\n      || (uint(read_values[5]) - 1 == _tier_index         // Trying to modify the current tier, when the current tier is not the first tier\n         && _tier_index != 0)\n      || read_values[8] == 0                              // Requested crowdsale tier was not set as 'modifiable'\n    ) bytes32(\"InvalidCrowdsaleStatus\").trigger();\n\n    /// If the tier to update is tier 0, and the current tier index is 0, tier can be updated iff crowdsale has not yet begun - check start time\n    if (_tier_index == 0 && read_values[5] == bytes32(1)) {\n      if (now >= tier_update.crowdsale_starts_at) // If the crowdsale has already begun, the first tier's duration cannot be updated\n        bytes32(\"CannotModifyCurrentTier\").trigger();\n\n      /// Updating tier 0 - overwrite memory buffer to create storage return buffer\n      ptr.stOverwrite(0, 0);\n      // Push updated 'current tier ends at' value to buffer\n      ptr.stPush(CURRENT_TIER_ENDS_AT, bytes32(_new_duration + tier_update.crowdsale_starts_at));\n\n    /// If the tier to update is not the current tier, but it is beyond the end time of the current tier, current tier may need updating -\n    } else if (_tier_index > uint(read_values[5]) - 1 && now >= tier_update.cur_tier_end_time) {\n      /// Loop through tiers between 'current tier' and _tier_index, and add their durations to a new 'readMulti' buffer - to get the requested tier to update's start time\n\n      // Get new 'readMulti' calldata buffer - do not overwrite previous buffer\n      ptr = MemoryBuffers.cdBuff(RD_MULTI);\n      // Push exec id, data read offset, and read size to buffer\n      ptr.cdPush(exec_id);\n      ptr.cdPush(0x40);\n      ptr.cdPush(bytes32(_tier_index - uint(read_values[5])));\n      // Loop through the difference in the returned 'current' index and the requested update index, and push the location of each in-between tier's duration to the buffer\n      for (uint i = uint(read_values[5]); i < _tier_index; i++)\n        ptr.cdPush(bytes32(128 + (192 * i) + uint(CROWDSALE_TIERS)));\n\n      // Read from storage, and store return to buffer\n      uint[] memory read_durations = ptr.readMulti().toUintArr();\n      assert(read_durations.length == _tier_index - uint(read_values[5])); // Ensure valid returned array size\n\n      // Loop through returned durations, and add each to 'cur tier end time'\n      for (i = 0; i < read_durations.length; i++)\n        tier_update.cur_tier_end_time += read_durations[i];\n\n      // If 'now' is not beyond 'cur_tier_end_time', sender is attempting to modify a tier which is in progress or has already passed\n      if (now <= tier_update.cur_tier_end_time)\n        bytes32(\"CannotModifyCurrentTier\").trigger();\n\n      /// Requested tier to update is valid - overwrite previous buffer to create storage return buffer\n      ptr.stOverwrite(0, 0);\n\n    /// If the tier to be updated is not the current tier, but the current tier is still in progress, update the requested tier -\n    } else if (_tier_index > uint(read_values[5]) - 1 && now < tier_update.cur_tier_end_time) {\n      // Overwrite previous buffer with storage buffer\n      ptr.stOverwrite(0, 0);\n    } else {\n      // Not a valid state to update - throw\n      bytes32(\"InvalidState\").trigger();\n    }\n\n    // Get new overall crowdsale duration -\n    if (tier_update.prev_duration > _new_duration) // Subtracting from total_duration\n      tier_update.total_duration -= (tier_update.prev_duration - _new_duration);\n    else // Adding to total_duration\n      tier_update.total_duration += (_new_duration - tier_update.prev_duration);\n\n    // Push new tier duration to crowdsale tier list in storage buffer\n    ptr.stPush(bytes32(128 + (192 * _tier_index) + uint(CROWDSALE_TIERS)), bytes32(_new_duration));\n    // Push updated overall crowdsale duration to buffer\n    ptr.stPush(CROWDSALE_TOTAL_DURATION, bytes32(tier_update.total_duration));\n    // Get bytes32[] storage request array from buffer\n    store_data = ptr.getBuffer();\n  }\n\n  /*\n  Allows the admin of a crowdsale to finalize the initialization process for this crowdsale, locking its details\n\n  @param _context: The execution context for this application - a 96-byte array containing (in order):\n    1. Application execution id\n    2. Original script sender (address, padded to 32 bytes)\n    3. Wei amount sent with transaction to storage\n  @return store_data: A formatted storage request - first 64 bytes designate a forwarding address (and amount) for any wei sent\n  */\n  function initializeCrowdsale(bytes memory _context) public onlyAdminAndNotInit(_context) view\n  returns (bytes32[] memory store_data) {\n    // Get execuion id from _context\n    bytes32 exec_id;\n    (exec_id, , ) = parse(_context);\n\n    // Create 'readMulti' calldata buffer in memory\n    uint ptr = MemoryBuffers.cdBuff(RD_MULTI);\n\n    // Place exec id, data read offset, and read size in buffer\n    ptr.cdPush(exec_id);\n    ptr.cdPush(0x40);\n    ptr.cdPush(bytes32(2));\n    // Push crowdsale start time and token name read locations to buffer\n    ptr.cdPush(CROWDSALE_START_TIME);\n    ptr.cdPush(TOKEN_NAME);\n\n    // Read from storage and check that the token name is nonzero and the start time has not passed yet\n    bytes32[] memory read_values = ptr.readMulti();\n    // Ensure correct return length\n    assert(read_values.length == 2);\n\n    if (\n      read_values[0] < bytes32(now)            // Crowdsale already started\n      || read_values[1] == 0                   // Token not initialized\n    ) bytes32(\"CrowdsaleStartedOrTokenNotInit\").trigger();\n\n    // Overwrite read buffer with storage buffer\n    ptr.stOverwrite(0, 0);\n    // Push crowdsale initialization status location to buffer\n    ptr.stPush(CROWDSALE_IS_INIT, bytes32(1));\n    // Get bytes32[] storage request array from buffer\n    store_data = ptr.getBuffer();\n  }\n\n  /*\n  Allows the crowdsale admin to finalize a crowdsale, provided it is fully initialized, and not already finalized\n\n  @param _context: The execution context for this application - a 96-byte array containing (in order):\n    1. Application execution id\n    2. Original script sender (address, padded to 32 bytes)\n    3. Wei amount sent with transaction to storage\n  @return store_data: A formatted storage request - first 64 bytes designate a forwarding address (and amount) for any wei sent\n  */\n  function finalizeCrowdsale(bytes memory _context) public view returns (bytes32[] memory store_data) {\n    // Get sender and exec id for this app instance\n    address sender;\n    bytes32 exec_id;\n    (exec_id, sender, ) = parse(_context);\n\n    // Create 'readMulti' calldata buffer in memory\n    uint ptr = MemoryBuffers.cdBuff(RD_MULTI);\n    // Push exec id, data read offset, and read size to calldata buffer\n    ptr.cdPush(exec_id);\n    ptr.cdPush(0x40);\n    ptr.cdPush(bytes32(3));\n    // Push admin address, crowdsale init status, and crowdsale finalization status in calldata\n    ptr.cdPush(ADMIN);\n    ptr.cdPush(CROWDSALE_IS_INIT);\n    ptr.cdPush(CROWDSALE_IS_FINALIZED);\n    // Read from storage, and store returned data in buffer\n    bytes32[] memory read_values = ptr.readMulti();\n    // Ensure correct return length\n    assert(read_values.length == 3);\n\n    // Check that the sender is the admin address, and that the crowdsale is initialized, but not finalized\n    if (\n      read_values[0] != bytes32(sender)\n      || read_values[1] == 0                          // Crowdsale init status is false\n      || read_values[2] == bytes32(1)                 // Crowdsale finalization status is true\n    ) bytes32(\"NotAdminOrStatusInvalid\").trigger();\n\n    // Create storage buffer, overwriting the previous read buffer\n    ptr.stOverwrite(0, 0);\n    // Push crowdsale finalization status to buffer\n    ptr.stPush(CROWDSALE_IS_FINALIZED, bytes32(1));\n\n    // Get bytes32[] storage request array from buffer\n    store_data = ptr.getBuffer();\n  }\n\n  // Parses context array and returns execution id, sender address, and sent wei amount\n  function parse(bytes memory _context) internal pure returns (bytes32 exec_id, address from, uint wei_sent) {\n    if (_context.length != 96)\n      bytes32(\"UnknownExecutionContext\").trigger();\n\n    assembly {\n      exec_id := mload(add(0x20, _context))\n      from := mload(add(0x40, _context))\n      wei_sent := mload(add(0x60, _context))\n    }\n\n    // Ensure sender and exec id are valid\n    if (from == address(0) || exec_id == 0)\n      bytes32(\"UnknownExecutionContext\").trigger();\n  }\n}\n",
  "sourcePath": "/home/alex/auth_os/applications/TokenWizard/crowdsale/MintedCappedCrowdsale/contracts/crowdsale/CrowdsaleConsole.sol",
  "compiler": {
    "name": "solc",
    "version": "0.4.23+commit.124ca40d.Emscripten.clang"
  },
  "schemaVersion": "2.0.0",
  "updatedAt": "2018-05-02T19:13:39.219Z"
}