{
  "contractName": "CrowdsaleBuyTokens",
  "abi": [
    {
      "constant": true,
      "inputs": [
        {
          "name": "_context",
          "type": "bytes"
        }
      ],
      "name": "buy",
      "outputs": [
        {
          "name": "store_data",
          "type": "bytes32[]"
        }
      ],
      "payable": false,
      "stateMutability": "view",
      "type": "function"
    }
  ],
  "bytecode": "0x612289610030600b82828239805160001a6073146000811461002057610022565bfe5b5030600052607381538281f3007300000000000000000000000000000000000000003014608060405260043610610058576000357c0100000000000000000000000000000000000000000000000000000000900463ffffffff1680634559b8921461005d575b600080fd5b6100b7600480360381019080803590602001908201803590602001908080601f016020809104026020016040519081016040528093929190818152602001838380828437820191505050505050919291929050505061010e565b6040518080602001828103825283818151815260200191508051906020019060200280838360005b838110156100fa5780820151818401526020810190506100df565b505050509050019250505060405180910390f35b6060600080600061011d61218d565b6101256121cf565b61012d61222d565b600061013889610867565b809750819950829850505050600085141561017b5761017a7f4e6f57656953656e74000000000000000000000000000000000000000000000060001916610936565b5b61018486610940565b9350610191868886610dd1565b80935081945050506101a585848685611821565b6101b7836000015183608001516119e2565b9050816000015182600001518360600151011115156101d557600080fd5b6102a987604051808273ffffffffffffffffffffffffffffffffffffffff1673ffffffffffffffffffffffffffffffffffffffff166c01000000000000000000000000028152601401915050604051809103902060405180807f746f6b656e5f62616c616e636573000000000000000000000000000000000000815250600e01905060405180910390206040518083600019166000191681526020018260001916600019168152602001925050506040518091039020836000015184606001510160010283611a069092919063ffffffff16565b81606001518460400151101515156102c057600080fd5b61031760405180807f63726f776473616c655f746965725f746f6b656e735f72656d61696e696e6700815250601f0190506040518091039020836060015186604001510360010283611a069092919063ffffffff16565b8260600151826060015184606001510111151561033357600080fd5b61038a60405180807f63726f776473616c655f746f6b656e735f736f6c64000000000000000000000081525060150190506040518091039020836060015185606001510160010283611a069092919063ffffffff16565b826040015182606001518460400151011115156103a657600080fd5b6103fd60405180807f746f6b656e5f746f74616c5f737570706c79000000000000000000000000000081525060120190506040518091039020836060015185604001510160010283611a069092919063ffffffff16565b8260200151826080015184602001510111151561041957600080fd5b61047060405180807f63726f776473616c655f7765695f72616973656400000000000000000000000081525060140190506040518091039020836080015185602001510160010283611a069092919063ffffffff16565b600015158360e00151151514156105a0576104d560405180807f63726f776473616c655f636f6e7472696275746f7273000000000000000000008152506016019050604051809103902060018560c001510160010283611a069092919063ffffffff16565b61059f87604051808273ffffffffffffffffffffffffffffffffffffffff1673ffffffffffffffffffffffffffffffffffffffff166c01000000000000000000000000028152601401915050604051809103902060405180807f63726f776473616c655f636f6e7472696275746f7273000000000000000000008152506016019050604051809103902060405180836000191660001916815260200182600019166000191681526020019250505060405180910390206001800283611a069092919063ffffffff16565b5b8360a00151156107a05761069e87604051808273ffffffffffffffffffffffffffffffffffffffff1673ffffffffffffffffffffffffffffffffffffffff166c010000000000000000000000000281526014019150506040518091039020856020015160405180807f63726f776473616c655f70757263686173655f77686974656c69737400000000815250601c01905060405180910390206040518083815260200182600019166000191681526020019250505060405180910390206040518083600019166000191681526020018260001916600019168152602001925050506040518091039020600060010283611a069092919063ffffffff16565b61079f87604051808273ffffffffffffffffffffffffffffffffffffffff1673ffffffffffffffffffffffffffffffffffffffff166c010000000000000000000000000281526014019150506040518091039020856020015160405180807f63726f776473616c655f70757263686173655f77686974656c69737400000000815250601c0190506040518091039020604051808381526020018260001916600019168152602001925050506040518091039020604051808360001916600019168152602001826000191660001916815260200192505050604051809103902060019004602001600102836040015160010283611a069092919063ffffffff16565b5b8360c0015115610850576107fe60405180807f63726f776473616c655f63757272656e745f746965720000000000000000000081525060160190506040518091039020600186602001510160010283611a069092919063ffffffff16565b61084f60405180807f63726f776473616c655f746965725f656e64735f61740000000000000000000081525060160190506040518091039020856080015160010283611a069092919063ffffffff16565b5b61085981611a3d565b975050505050505050919050565b6000806000606084511415156108a5576108a47f556e6b6e6f776e457865637574696f6e436f6e7465787400000000000000000060001916610936565b5b836020015192508360400151915083606001519050600073ffffffffffffffffffffffffffffffffffffffff168273ffffffffffffffffffffffffffffffffffffffff1614806108fc575060006001028360001916145b1561092f5761092e7f556e6b6e6f776e457865637574696f6e436f6e7465787400000000000000000060001916610936565b5b9193909250565b8060005260206000fd5b61094861218d565b6000606061098a60405180807f726561644d756c746928627974657333322c627974657333325b5d2900000000815250601c0190506040518091039020611a60565b915061099f8483611a7d90919063ffffffff16565b6109b6604060010283611a7d90919063ffffffff16565b6109cd600560010283611a7d90919063ffffffff16565b610a1560405180807f63726f776473616c655f746965725f6c697374000000000000000000000000008152506013019050604051809103902083611a7d90919063ffffffff16565b610a5d60405180807f63726f776473616c655f63757272656e745f74696572000000000000000000008152506016019050604051809103902083611a7d90919063ffffffff16565b610aa560405180807f63726f776473616c655f746965725f656e64735f6174000000000000000000008152506016019050604051809103902083611a7d90919063ffffffff16565b610aed60405180807f63726f776473616c655f746965725f746f6b656e735f72656d61696e696e6700815250601f019050604051809103902083611a7d90919063ffffffff16565b610b3560405180807f63726f776473616c655f73746172745f74696d650000000000000000000000008152506014019050604051809103902083611a7d90919063ffffffff16565b610b46610b4183611aa8565b611b2a565b905060058151141515610b5557fe5b6000816000815181101515610b6657fe5b90602001906020020151118015610b9557506000816001815181101515610b8957fe5b90602001906020020151115b1515610b9d57fe5b806000815181101515610bac57fe5b90602001906020020151816001815181101515610bc557fe5b906020019060200201511115610c0357610c027f43726f776473616c6546696e697368656400000000000000000000000000000060001916610936565b5b806004815181101515610c1257fe5b90602001906020020151421015610c5157610c507f4265666f7265537461727454696d65000000000000000000000000000000000060001916610936565b5b60e060405190810160405280826000815181101515610c6c57fe5b9060200190602002015181526020016001836001815181101515610c8c57fe5b90602001906020020151038152602001826003815181101515610cab57fe5b90602001906020020151815260200160008152602001826002815181101515610cd057fe5b906020019060200201518152602001600015158152602001600015158152509250806002815181101515610d0057fe5b9060200190602002015142101515610d2357610d1e84838386611b34565b610d30565b610d2f84838386611f70565b5b8260000151836020015110158015610d4c575060008360600151145b8015610d5c575042836080015111155b15610d8f57610d8e7f496e76616c6964496e64657850726963654f72456e6454696d6500000000000060001916610936565b5b600083604001511415610dca57610dc97f54696572536f6c644f757400000000000000000000000000000000000000000060001916610936565b5b5050919050565b610dd96121cf565b610de161222d565b60006060610e2360405180807f726561644d756c746928627974657333322c627974657333325b5d2900000000815250601c0190506040518091039020611a60565b9150610e388783611a7d90919063ffffffff16565b610e4f604060010283611a7d90919063ffffffff16565b8460a0015115610e7557610e70600e60010283611a7d90919063ffffffff16565b610e8d565b610e8c600c60010283611a7d90919063ffffffff16565b5b610ed560405180807f63726f776473616c655f77616c6c6574000000000000000000000000000000008152506010019050604051809103902083611a7d90919063ffffffff16565b610f1d60405180807f63726f776473616c655f7765695f7261697365640000000000000000000000008152506014019050604051809103902083611a7d90919063ffffffff16565b610f6560405180807f746f6b656e5f746f74616c5f737570706c7900000000000000000000000000008152506012019050604051809103902083611a7d90919063ffffffff16565b610fad60405180807f63726f776473616c655f746f6b656e735f736f6c6400000000000000000000008152506015019050604051809103902083611a7d90919063ffffffff16565b610ff560405180807f746f6b656e5f646563696d616c73000000000000000000000000000000000000815250600e019050604051809103902083611a7d90919063ffffffff16565b61103d60405180807f63726f776473616c655f73746172745f74696d650000000000000000000000008152506014019050604051809103902083611a7d90919063ffffffff16565b61108560405180807f63726f776473616c655f636f6e7472696275746f7273000000000000000000008152506016019050604051809103902083611a7d90919063ffffffff16565b61114a86604051808273ffffffffffffffffffffffffffffffffffffffff1673ffffffffffffffffffffffffffffffffffffffff166c01000000000000000000000000028152601401915050604051809103902060405180807f63726f776473616c655f636f6e7472696275746f72730000000000000000000081525060160190506040518091039020604051808360001916600019168152602001826000191660001916815260200192505050604051809103902083611a7d90919063ffffffff16565b61119260405180807f63726f776473616c655f69735f696e69740000000000000000000000000000008152506011019050604051809103902083611a7d90919063ffffffff16565b6111da60405180807f63726f776473616c655f69735f66696e616c697a6564000000000000000000008152506016019050604051809103902083611a7d90919063ffffffff16565b61129f86604051808273ffffffffffffffffffffffffffffffffffffffff1673ffffffffffffffffffffffffffffffffffffffff166c01000000000000000000000000028152601401915050604051809103902060405180807f746f6b656e5f62616c616e636573000000000000000000000000000000000000815250600e0190506040518091039020604051808360001916600019168152602001826000191660001916815260200192505050604051809103902083611a7d90919063ffffffff16565b6112e760405180807f63726f776473616c655f6d696e5f6361700000000000000000000000000000008152506011019050604051809103902083611a7d90919063ffffffff16565b8460a00151156114d8576113df86604051808273ffffffffffffffffffffffffffffffffffffffff1673ffffffffffffffffffffffffffffffffffffffff166c010000000000000000000000000281526014019150506040518091039020866020015160405180807f63726f776473616c655f70757263686173655f77686974656c69737400000000815250601c0190506040518091039020604051808381526020018260001916600019168152602001925050506040518091039020604051808360001916600019168152602001826000191660001916815260200192505050604051809103902083611a7d90919063ffffffff16565b6114d786604051808273ffffffffffffffffffffffffffffffffffffffff1673ffffffffffffffffffffffffffffffffffffffff166c010000000000000000000000000281526014019150506040518091039020866020015160405180807f63726f776473616c655f70757263686173655f77686974656c69737400000000815250601c019050604051809103902060405180838152602001826000191660001916815260200192505050604051809103902060405180836000191660001916815260200182600019166000191681526020019250505060405180910390206001900460200160010283611a7d90919063ffffffff16565b5b6114e182611aa8565b90508460a001516114f657600c8151146114fc565b600e8151145b151561150457fe5b600060010281600881518110151561151857fe5b906020019060200201516000191614806115525750600060010281600981518110151561154157fe5b906020019060200201516000191614155b15611585576115847f43726f776473616c65496e76616c69645374617465000000000000000000000060001916610936565b5b610100604051908101604052808260008151811015156115a157fe5b906020019060200201516001900473ffffffffffffffffffffffffffffffffffffffff1681526020018260018151811015156115d957fe5b906020019060200201516001900481526020018260028151811015156115fb57fe5b9060200190602002015160019004815260200182600381518110151561161d57fe5b9060200190602002015160019004815260200182600481518110151561163f57fe5b9060200190602002015160019004815260200182600581518110151561166157fe5b9060200190602002015160019004815260200182600681518110151561168357fe5b9060200190602002015160019004815260200160006001028360078151811015156116aa57fe5b9060200190602002015160001916146116c45760016116c7565b60005b1515815250935060a06040519081016040528082600a8151811015156116e957fe5b906020019060200201516001900481526020018660a001516117275782600b81518110151561171457fe5b9060200190602002015160019004611745565b82600c81518110151561173657fe5b90602001906020020151600190045b81526020018660a0015161175a576000611778565b82600d81518110151561176957fe5b90602001906020020151600190045b815260200160008152602001600081525092508360e00151156117a15760008360200181815250505b600073ffffffffffffffffffffffffffffffffffffffff16846000015173ffffffffffffffffffffffffffffffffffffffff1614806117e4575060128460800151115b15611817576118167f496e76616c696457616c6c65744f72446563696d616c7300000000000000000060001916610936565b5b5050935093915050565b816040015182606001518460800151600a0a860281151561183e57fe5b041115611870578260800151600a0a826040015183606001510281151561186157fe5b04816080018181525050611895565b81606001518360800151600a0a850281151561188857fe5b0684038160800181815250505b8160a00151156118f1578060400151816080015111156118dc5781606001518360800151600a0a8260400151028115156118cb57fe5b068160400151038160800181815250505b80608001518160400181815103915081815250505b6000816080015114806119075750838160800151115b1561193a576119397f496e76616c69645370656e64416d6f756e74000000000000000000000000000060001916610936565b5b81606001518360800151600a0a82608001510281151561195657fe5b0481606001818152505081604001518160600151111561199e5761199d7f496e76616c69645075726368617365416d6f756e74000000000000000000000060001916610936565b5b8060200151816060015110156119dc576119db7f556e6465724d696e43617000000000000000000000000000000000000000000060001916610936565b5b50505050565b60006040519050604081528281602001528181604001528060600160405292915050565b8251602001828185015280602001905081818501528084528084602001016040511015611a37578084604001016040525b50505050565b6060600060208351061115611a5157600080fd5b60208251048252819050919050565b600060405190506004815281816020015280604001604052919050565b815160200181818401528083528083602001016040511015611aa3578083602c01016040525b505050565b60606000608483511015611abb57600080fd5b600080845185602001335afa90506000811115611aef57825160203d031115611ae357600080fd5b60203d036020843e8291505b801515611b2457611b237f53746f72616765526561644661696c656400000000000000000000000000000060001916610936565b5b50919050565b6060819050919050565b5b80608001514210158015611b59575080600001518160200180516001019081815250105b15611e8e57611ba660405180807f726561644d756c746928627974657333322c627974657333325b5d2900000000815250601c01905060405180910390208461217f90919063ffffffff16565b611bb98484611a7d90919063ffffffff16565b611bd0604060010284611a7d90919063ffffffff16565b611be7600460010284611a7d90919063ffffffff16565b611c4260405180807f63726f776473616c655f746965725f6c697374000000000000000000000000008152506013019050604051809103902060019004826020015160c0026040010160010284611a7d90919063ffffffff16565b611c9d60405180807f63726f776473616c655f746965725f6c697374000000000000000000000000008152506013019050604051809103902060019004826020015160c0026060010160010284611a7d90919063ffffffff16565b611cf860405180807f63726f776473616c655f746965725f6c697374000000000000000000000000008152506013019050604051809103902060019004826020015160c0026080010160010284611a7d90919063ffffffff16565b611d5360405180807f63726f776473616c655f746965725f6c697374000000000000000000000000008152506013019050604051809103902060019004826020015160c00260c0010160010284611a7d90919063ffffffff16565b611d64611d5f84611aa8565b611b2a565b915060048251141515611d7357fe5b6000826000815181101515611d8457fe5b906020019060200201511480611db257506000826001815181101515611da657fe5b90602001906020020151145b80611dd557506000826002815181101515611dc957fe5b90602001906020020151145b15611e0857611e077f496e76616c69645469657200000000000000000000000000000000000000000060001916610936565b5b8060800151826002815181101515611e1c57fe5b90602001906020020151826080015101111515611e6157611e607f546965724475726174696f6e4f766572666c6f7700000000000000000000000060001916610936565b5b816002815181101515611e7057fe5b90602001906020020151816080018181510191508181525050611b35565b806080015142101580611ea957508060000151816020015110155b15611edc57611edb7f43726f776473616c6546696e697368656400000000000000000000000000000060001916610936565b5b816000815181101515611eeb57fe5b90602001906020020151816040018181525050816001815181101515611f0d57fe5b906020019060200201518160600181815250506000826003815181101515611f3157fe5b9060200190602002015114611f47576001611f4a565b60005b8160a001901515908115158152505060018160c001901515908115158152505050505050565b611fb860405180807f726561644d756c746928627974657333322c627974657333325b5d2900000000815250601c01905060405180910390208461217f90919063ffffffff16565b611fcb8484611a7d90919063ffffffff16565b611fe2604060010284611a7d90919063ffffffff16565b611ff9600260010284611a7d90919063ffffffff16565b61205460405180807f63726f776473616c655f746965725f6c697374000000000000000000000000008152506013019050604051809103902060019004826020015160c0026060010160010284611a7d90919063ffffffff16565b6120af60405180807f63726f776473616c655f746965725f6c697374000000000000000000000000008152506013019050604051809103902060019004826020015160c00260c0010160010284611a7d90919063ffffffff16565b6120c06120bb84611aa8565b611b2a565b9150600282511415156120cf57fe5b60008260008151811015156120e057fe5b90602001906020020151141561211e5761211d7f496e76616c69645075726368617365507269636500000000000000000000000060001916610936565b5b81600081518110151561212d57fe5b90602001906020020151816060018181525050600082600181518110151561215157fe5b906020019060200201511461216757600161216a565b60005b8160a001901515908115158152505050505050565b600482528082602001525050565b60e06040519081016040528060008152602001600081526020016000815260200160008152602001600081526020016000151581526020016000151581525090565b61010060405190810160405280600073ffffffffffffffffffffffffffffffffffffffff1681526020016000815260200160008152602001600081526020016000815260200160008152602001600081526020016000151581525090565b60a060405190810160405280600081526020016000815260200160008152602001600081526020016000815250905600a165627a7a723058204ebb843b139c5b065ef59e6044e9face3e3c2dcd3c1bf4cc03b16d7a5a155bb00029",
  "source": "pragma solidity ^0.4.23;\n\nimport \"../lib/MemoryBuffers.sol\";\nimport \"../lib/ArrayUtils.sol\";\n\nlibrary CrowdsaleBuyTokens {\n\n  using MemoryBuffers for uint;\n  using ArrayUtils for bytes32[];\n  using Exceptions for bytes32;\n\n  /// CROWDSALE STORAGE ///\n\n  // Whether the crowdsale and token are initialized, and the sale is ready to run\n  bytes32 internal constant CROWDSALE_IS_INIT = keccak256(\"crowdsale_is_init\");\n\n  // Whether or not the crowdsale is post-purchase\n  bytes32 internal constant CROWDSALE_IS_FINALIZED = keccak256(\"crowdsale_is_finalized\");\n\n  // Storage location of the crowdsale's start time\n  bytes32 internal constant CROWDSALE_START_TIME = keccak256(\"crowdsale_start_time\");\n\n  // Storage location of the amount of tokens sold in the crowdsale so far. Does not include reserved tokens\n  bytes32 internal constant CROWDSALE_TOKENS_SOLD = keccak256(\"crowdsale_tokens_sold\");\n\n  // Storage location of the minimum amount of tokens allowed to be purchased\n  bytes32 internal constant CROWDSALE_MINIMUM_CONTRIBUTION = keccak256(\"crowdsale_min_cap\");\n\n  // Maps addresses to a boolean indicating whether or not this address has contributed\n  // At its base location, stores the amount of unique contributors so far in this crowdsale\n  bytes32 internal constant CROWDSALE_UNIQUE_CONTRIBUTORS = keccak256(\"crowdsale_contributors\");\n\n  // Storage location of a list of the tiers the crowdsale will have\n  /* Each tier mimics the following struct:\n  struct CrowdsaleTier {\n    bytes32 _tier_name;                 // The name of the crowdsale tier\n    uint _tier_token_sell_cap;          // The maximum number of tokens that will be sold during this tier\n    uint _tier_purchase_price;          // The price of a token in wei for this tier\n    uint _duration;                     // The amount of time this tier will be active for\n    bool _tier_duration_is_modifiable;  // Whether the crowdsale admin is allowed to modify the duration of a tier before it goes live\n    bool _tier_is_whitelist_enabled;    // Whether this tier of the crowdsale requires users to be on a purchase whitelist\n  }\n  */\n  bytes32 internal constant CROWDSALE_TIERS = keccak256(\"crowdsale_tier_list\");\n\n  // Storage location of the CROWDSALE_TIERS index (-1) of the current tier. If zero, no tier is currently active\n  bytes32 internal constant CROWDSALE_CURRENT_TIER = keccak256(\"crowdsale_current_tier\");\n\n  // Storage location of the end time of the current tier. Purchase attempts beyond this time will update the current tier (if another is available)\n  bytes32 internal constant CURRENT_TIER_ENDS_AT = keccak256(\"crowdsale_tier_ends_at\");\n\n  // Storage location of the total number of tokens remaining for purchase in the current tier\n  bytes32 internal constant CURRENT_TIER_TOKENS_REMAINING = keccak256(\"crowdsale_tier_tokens_remaining\");\n\n  // Storage location of team funds wallet\n  bytes32 internal constant WALLET = keccak256(\"crowdsale_wallet\");\n\n  // Storage location of amount of wei raised during the crowdsale, total\n  bytes32 internal constant WEI_RAISED = keccak256(\"crowdsale_wei_raised\");\n\n  // Storage seed for crowdsale whitelist mappings - maps each tier's index to a mapping of addresses to whtielist information\n  /* Each whitelist entry mimics this struct:\n  struct WhitelistListing {\n    uint minimum_contribution;\n    uint max_contribution;\n  }\n  */\n  bytes32 internal constant SALE_WHITELIST = keccak256(\"crowdsale_purchase_whitelist\");\n\n  /// TOKEN STORAGE ///\n\n  // Storage location for token decimals\n  bytes32 internal constant TOKEN_DECIMALS = keccak256(\"token_decimals\");\n\n  // Storage location for token totalSupply\n  bytes32 internal constant TOKEN_TOTAL_SUPPLY = keccak256(\"token_total_supply\");\n\n  // Storage seed for user balances mapping\n  bytes32 internal constant TOKEN_BALANCES = keccak256(\"token_balances\");\n\n  /// FUNCTION SELECTORS ///\n\n  // Function selector for storage 'readMulti'\n  // readMulti(bytes32 exec_id, bytes32[] locations)\n  bytes4 internal constant RD_MULTI = bytes4(keccak256(\"readMulti(bytes32,bytes32[])\"));\n\n  struct CrowdsaleTier {\n    uint num_tiers;\n    uint index;\n    uint tokens_remaining;\n    uint purchase_price;\n    uint tier_ends_at;\n    bool tier_is_whitelisted;\n    bool updated_tier;\n  }\n\n  struct CrowdsaleInfo {\n    address team_wallet;\n    uint wei_raised;\n    uint token_total_supply;\n    uint tokens_sold;\n    uint token_decimals;\n    uint start_time;\n    uint num_contributors;\n    bool sender_has_contributed;\n  }\n\n  struct SpendInfo {\n    uint sender_token_balance;\n    uint minimum_purchase_amount;\n    uint maximum_spend_amount;\n    uint amount_purchased;\n    uint amount_spent;\n  }\n\n  /*\n  Allows the sender to purchase tokens from the crowdsale, if it is active\n\n  @param _context: The execution context for this application - a 96-byte array containing (in order):\n    1. Application execution id\n    2. Original script sender (address, padded to 32 bytes)\n    3. Wei amount sent with transaction to storage\n  @return store_data: A formatted storage request - first 64 bytes designate a forwarding address (and amount) for any wei sent\n  */\n  function buy(bytes memory _context) public view returns (bytes32[] memory store_data) {\n    // Get original sender address, execution id, and wei sent from context array\n    address sender;\n    bytes32 exec_id;\n    uint wei_sent;\n    (exec_id, sender, wei_sent) = parse(_context);\n    // Ensure nonzero amount of wei sent\n    if (wei_sent == 0)\n      bytes32(\"NoWeiSent\").trigger();\n\n    /// Get information on the current tier of the crowdsale, and create CrowdsaleTier struct to hold the information -\n    CrowdsaleTier memory cur_tier = getCurrentTier(exec_id);\n\n    /// Read crowdsale information from storage -\n    CrowdsaleInfo memory sale_stat;\n    SpendInfo memory spend_stat;\n    (sale_stat, spend_stat) = getCrowdsaleInfo(exec_id, sender, cur_tier);\n\n    /// Get amount of wei able to be spent, and tokens able to be purchased -\n    getPurchaseInfo(wei_sent, sale_stat, cur_tier, spend_stat);\n\n    /// Amount to spend and amount of tokens to purchase have been calculated - prepare storage return buffer\n    uint ptr = MemoryBuffers.stBuff(sale_stat.team_wallet, spend_stat.amount_spent);\n\n    // Safely add to sender's token balance, and push their new balance along with their balance storage location\n    require(spend_stat.amount_purchased + spend_stat.sender_token_balance > spend_stat.sender_token_balance);\n    ptr.stPush(\n      keccak256(keccak256(sender), TOKEN_BALANCES),\n      bytes32(spend_stat.amount_purchased + spend_stat.sender_token_balance)\n    );\n    // Safely subtract amount purchased from tier tokens remaining -\n    require(cur_tier.tokens_remaining >= spend_stat.amount_purchased);\n    ptr.stPush(CURRENT_TIER_TOKENS_REMAINING, bytes32(cur_tier.tokens_remaining - spend_stat.amount_purchased));\n    // Safely add to the crowdsale's total tokens sold\n    require(sale_stat.tokens_sold + spend_stat.amount_purchased > sale_stat.tokens_sold);\n    ptr.stPush(CROWDSALE_TOKENS_SOLD, bytes32(sale_stat.tokens_sold + spend_stat.amount_purchased));\n    // Safely add tokens purchased to total token supply\n    require(sale_stat.token_total_supply + spend_stat.amount_purchased > sale_stat.token_total_supply);\n    ptr.stPush(TOKEN_TOTAL_SUPPLY, bytes32(sale_stat.token_total_supply + spend_stat.amount_purchased));\n    // Safely add to crowdsale wei raised\n    require(sale_stat.wei_raised + spend_stat.amount_spent > sale_stat.wei_raised);\n    ptr.stPush(WEI_RAISED, bytes32(sale_stat.wei_raised + spend_stat.amount_spent));\n\n    // If the sender had not previously contributed to the sale, push new unique contributor count and sender contributor status to buffer\n    if (sale_stat.sender_has_contributed == false) {\n      ptr.stPush(CROWDSALE_UNIQUE_CONTRIBUTORS, bytes32(sale_stat.num_contributors + 1));\n      ptr.stPush(keccak256(keccak256(sender), CROWDSALE_UNIQUE_CONTRIBUTORS), bytes32(1));\n    }\n\n    // If this tier was whitelisted, update sender's whitelist spend caps\n    if (cur_tier.tier_is_whitelisted) {\n      ptr.stPush(keccak256(keccak256(sender), keccak256(cur_tier.index, SALE_WHITELIST)), 0);\n      ptr.stPush(\n        bytes32(32 + uint(keccak256(keccak256(sender), keccak256(cur_tier.index, SALE_WHITELIST)))),\n        bytes32(spend_stat.maximum_spend_amount)\n      );\n    }\n\n    // If this tier was updated, set storage 'current tier' information -\n    if (cur_tier.updated_tier) {\n      ptr.stPush(CROWDSALE_CURRENT_TIER, bytes32(cur_tier.index + 1));\n      ptr.stPush(CURRENT_TIER_ENDS_AT, bytes32(cur_tier.tier_ends_at));\n    }\n\n    // Get bytes32[] representation of storage buffer\n    store_data = ptr.getBuffer();\n  }\n\n  /*\n  Reads from storage and returns information about the current crowdsale tier\n\n  @param _exec_id: The execution id under which the crowdsale is registered\n  @returns cur_tier: A struct representing the current tier of the crowdsale\n  */\n  function getCurrentTier(bytes32 _exec_id) internal view returns (CrowdsaleTier memory cur_tier) {\n    // Create 'readMulti' calldata buffer in memory -\n    uint ptr = MemoryBuffers.cdBuff(RD_MULTI);\n    // Push exec id, data read offset, and read size to buffer\n    ptr.cdPush(_exec_id);\n    ptr.cdPush(0x40);\n    ptr.cdPush(bytes32(5));\n    // Push locations to read from storage: tier list length, and current tier information\n    ptr.cdPush(CROWDSALE_TIERS);\n    ptr.cdPush(CROWDSALE_CURRENT_TIER);\n    ptr.cdPush(CURRENT_TIER_ENDS_AT);\n    ptr.cdPush(CURRENT_TIER_TOKENS_REMAINING);\n    ptr.cdPush(CROWDSALE_START_TIME);\n    // Read from storage and convert returned array to uint[]\n    uint[] memory tier_info = ptr.readMulti().toUintArr();\n    // Ensure valid read size\n    assert(tier_info.length == 5);\n\n    // Check returned values -\n\n    assert(tier_info[0] > 0 && tier_info[1] > 0); // Number of tiers cannot be 0, and current tier index cannot be 0\n    // If the current tier index (offset by 1) is greater than the tier list length, the crowdsale has already finished\n    if (tier_info[1] > tier_info[0])\n      bytes32(\"CrowdsaleFinished\").trigger();\n\n    // Ensure the crowdsale has started -\n    if (now < tier_info[4])\n      bytes32(\"BeforeStartTime\").trigger();\n\n    // Create cur_tier return struct -\n    cur_tier = CrowdsaleTier({\n      num_tiers: tier_info[0],\n      index: tier_info[1] - 1, // Tier index is offset by 1\n      tokens_remaining: tier_info[3],\n      purchase_price: 0,\n      tier_ends_at: tier_info[2],\n      tier_is_whitelisted: false,\n      updated_tier: false\n    });\n\n    // If the current tier has ended, we need to update the current tier in storage\n    if (now >= tier_info[2])\n      updateTier(_exec_id, ptr, tier_info, cur_tier);\n    else\n      getTierInfo(_exec_id, ptr, tier_info, cur_tier);\n\n    // Ensure current tier information is valid -\n    if (\n      cur_tier.index >= cur_tier.num_tiers     // Invalid tier index\n      && cur_tier.purchase_price == 0          // Invalid purchase price\n      && cur_tier.tier_ends_at <= now          // Invalid tier end time\n    ) bytes32(\"InvalidIndexPriceOrEndTime\").trigger();\n\n    // If the current tier does not have tokens remaining, revert\n    if (cur_tier.tokens_remaining == 0)\n      bytes32(\"TierSoldOut\").trigger();\n  }\n\n  /*\n  Loads information about the current crowdsale tier into the CrowdsaleTier struct\n\n  @param _exec_id: The execution id under which this crowdsale application is registered\n  @param _ptr: A pointer to a buffer in memory\n  @param _tier_info: An array containing information about the current tier in memory\n  @param _cur_tier: A struct representing information about the current crowdsale tier\n  */\n  function getTierInfo(bytes32 _exec_id, uint _ptr, uint[] memory _tier_info, CrowdsaleTier memory _cur_tier) internal view {\n    // Overwrite previous pointer and create 'readMulti' calldata buffer\n    _ptr.cdOverwrite(RD_MULTI);\n    // Push exec id, data read offset, and read size to calldata buffer\n    _ptr.cdPush(_exec_id);\n    _ptr.cdPush(0x40);\n    _ptr.cdPush(bytes32(2));\n    // Read current tier purchase price and whether or not it is whitlisted\n    _ptr.cdPush(bytes32(96 + (192 * _cur_tier.index) + uint(CROWDSALE_TIERS))); // Purchase price location\n    _ptr.cdPush(bytes32(192 + (192 * _cur_tier.index) + uint(CROWDSALE_TIERS))); // Current tier whitelist status location\n    // Read from memory\n    _tier_info = _ptr.readMulti().toUintArr();\n    // Ensure correct return length\n    assert(_tier_info.length == 2);\n\n    // Place purchase price and whitelist status in struct\n    if (_tier_info[0] == 0) // Purchase price must be over 0\n      bytes32(\"InvalidPurchasePrice\").trigger();\n\n    _cur_tier.purchase_price = _tier_info[0];\n    _cur_tier.tier_is_whitelisted = (_tier_info[1] == 0 ? false : true);\n  }\n\n  /*\n  Takes an input CrowdsaleTier struct and updates it to reflect information about the latest tier\n\n  @param _exec_id: The execution id under which this crowdsale application is registered\n  @param _ptr: A pointer to a buffer in memory\n  @param _tier_info: An array containing information about the current tier in memory\n  @param _cur_tier: A struct representing information about the current crowdsale tier\n  */\n  function updateTier(bytes32 _exec_id, uint _ptr, uint[] memory _tier_info, CrowdsaleTier memory _cur_tier) internal view {\n    // While the current timestamp is beyond the current tier's end time, and while the current tier's index is within a valid range:\n    while (now >= _cur_tier.tier_ends_at && ++_cur_tier.index < _cur_tier.num_tiers) {\n      // Overwrite current pointer and create new 'readMulti' calldata buffer\n      _ptr.cdOverwrite(RD_MULTI);\n      // Push exec id, data read offset, and read size to calldata buffer\n      _ptr.cdPush(_exec_id);\n      _ptr.cdPush(0x40);\n      _ptr.cdPush(bytes32(4));\n      // Push tier token sell cap storage location to buffer\n      _ptr.cdPush(bytes32(64 + (192 * _cur_tier.index) + uint(CROWDSALE_TIERS)));\n      // Push tier token price storage location to buffer\n      _ptr.cdPush(bytes32(96 + (192 * _cur_tier.index) + uint(CROWDSALE_TIERS)));\n      // Push tier duration storage location to buffer\n      _ptr.cdPush(bytes32(128 + (192 * _cur_tier.index) + uint(CROWDSALE_TIERS)));\n      // Push tier 'is-whitelisted' status storage location to buffer\n      _ptr.cdPush(bytes32(192 + (192 * _cur_tier.index) + uint(CROWDSALE_TIERS)));\n      // Read from storage and convert returned array to uint[]\n      _tier_info = _ptr.readMulti().toUintArr();\n      // Ensure correct return length\n      assert(_tier_info.length == 4);\n      // Ensure valid tier setup\n      if (_tier_info[0] == 0 || _tier_info[1] == 0 || _tier_info[2] == 0)\n        bytes32(\"InvalidTier\").trigger();\n      // Add returned duration to previous tier end time\n      if (_cur_tier.tier_ends_at + _tier_info[2] <= _cur_tier.tier_ends_at)\n        bytes32(\"TierDurationOverflow\").trigger();\n\n      _cur_tier.tier_ends_at += _tier_info[2];\n    }\n    // If the updated current tier's index is not in the valid range, or the end time is still in the past, throw\n    if (now >= _cur_tier.tier_ends_at || _cur_tier.index >= _cur_tier.num_tiers)\n      bytes32(\"CrowdsaleFinished\").trigger();\n\n    // Otherwise - update the CrowdsaleTier struct to reflect the actual current tier of the crowdsale\n    _cur_tier.tokens_remaining = _tier_info[0];\n    _cur_tier.purchase_price = _tier_info[1];\n    _cur_tier.tier_is_whitelisted = (_tier_info[3] == 0 ? false : true);\n    _cur_tier.updated_tier = true;\n  }\n\n  /*\n  Returns a struct containing information on the current crowdsale\n\n  @param _exec_id: The execution id under which the crowdsale is registered\n  @param _sender: The address purchasing the tokens\n  @param _cur_tier: A struct representing the current tier of the crowdsale\n  @returns sale_stat: A struct representing the current crowdsale\n  @returns spend_stat: A struct representing information about the sender\n  */\n  function getCrowdsaleInfo(bytes32 _exec_id, address _sender, CrowdsaleTier memory _cur_tier) internal view\n  returns (CrowdsaleInfo memory sale_stat, SpendInfo memory spend_stat) {\n      // Create 'readMulti' calldata buffer\n      uint ptr = MemoryBuffers.cdBuff(RD_MULTI);\n      // Push exec id, data read offset, and read size to buffer\n      ptr.cdPush(_exec_id);\n      ptr.cdPush(0x40);\n      // If the tier is whitelisted, we want to read the sender's whitelist information (+ 2 read locations)\n      if (_cur_tier.tier_is_whitelisted)\n        ptr.cdPush(bytes32(14));\n      else\n        ptr.cdPush(bytes32(12));\n      // Push team wallet, wei raised, token total supply, and tokens sold read locations to buffer\n      ptr.cdPush(WALLET);\n      ptr.cdPush(WEI_RAISED);\n      ptr.cdPush(TOKEN_TOTAL_SUPPLY);\n      ptr.cdPush(CROWDSALE_TOKENS_SOLD);\n      // Push token decimal count, crowdsale start time, crowdsale unique contributor count,\n      // and sender 'unique contributor' status loactions to buffer\n      ptr.cdPush(TOKEN_DECIMALS);\n      ptr.cdPush(CROWDSALE_START_TIME);\n      ptr.cdPush(CROWDSALE_UNIQUE_CONTRIBUTORS);\n      ptr.cdPush(keccak256(keccak256(_sender), CROWDSALE_UNIQUE_CONTRIBUTORS));\n      // Push crowdsale initialization and finalization read locations to buffer\n      ptr.cdPush(CROWDSALE_IS_INIT);\n      ptr.cdPush(CROWDSALE_IS_FINALIZED);\n      // Push sender token balance and crowdsale global minimum token purchase amount to buffer\n      ptr.cdPush(keccak256(keccak256(_sender), TOKEN_BALANCES));\n      ptr.cdPush(CROWDSALE_MINIMUM_CONTRIBUTION);\n      // If the tier is whitelisted, push the sender's whitelist information (minimum contribution cap and maximum spend amount)\n      if (_cur_tier.tier_is_whitelisted) {\n        ptr.cdPush(keccak256(keccak256(_sender), keccak256(_cur_tier.index, SALE_WHITELIST)));\n        ptr.cdPush(bytes32(32 + uint(keccak256(keccak256(_sender), keccak256(_cur_tier.index, SALE_WHITELIST)))));\n      }\n      // Read from storage -\n      bytes32[] memory read_values = ptr.readMulti();\n      // Ensure valid return length\n      assert(_cur_tier.tier_is_whitelisted ? read_values.length == 14 : read_values.length == 12);\n\n      // If the crowdsale is not initialized, is finalized, or has not yet begun, throw\n      if (\n        read_values[8] == 0            // Crowdsale is not yet initialized\n        || read_values[9] != 0         // Crowdsale is already finalized\n      ) bytes32(\"CrowdsaleInvalidState\").trigger();\n\n      // Get returned info and place in CrowdsaleInfo and SpendInfo structs\n      sale_stat = CrowdsaleInfo({\n        team_wallet: address(read_values[0]),\n        wei_raised: uint(read_values[1]),\n        token_total_supply: uint(read_values[2]),\n        tokens_sold: uint(read_values[3]),\n        token_decimals: uint(read_values[4]),\n        start_time: uint(read_values[5]),\n        num_contributors: uint(read_values[6]),\n        sender_has_contributed: (read_values[7] == 0 ? false : true)\n      });\n      spend_stat = SpendInfo({\n        sender_token_balance: uint(read_values[10]),\n        minimum_purchase_amount: (_cur_tier.tier_is_whitelisted ? uint(read_values[12]) : uint(read_values[11])),\n        maximum_spend_amount: (_cur_tier.tier_is_whitelisted ? uint(read_values[13]) : 0),\n        amount_purchased: 0,\n        amount_spent: 0\n      });\n\n      // If the sender has contributed, they no longer have a minimum contribution amount\n      if (sale_stat.sender_has_contributed)\n        spend_stat.minimum_purchase_amount = 0;\n\n      // Ensure team wallet and token decimal count are valid -\n      if (\n        sale_stat.team_wallet == address(0)          // Invalid team wallet address\n        || sale_stat.token_decimals > 18             // Invalid token decimal count\n      ) bytes32(\"InvalidWalletOrDecimals\").trigger();\n  }\n\n  /*\n  Gets the amount of tokens able to be purchased and the amount of wei able to be spent -\n\n  @param _wei_sent: The amount of wei sent to purchase tokens\n  @param _sale_stat: A struct representing crowdsale information\n  @param _cur_tier: A struct representing the current crowdsale tier\n  @param _spend_stat: A struct holding information on the sender and token\n  */\n  function getPurchaseInfo(\n    uint _wei_sent,\n    CrowdsaleInfo memory _sale_stat,\n    CrowdsaleTier memory _cur_tier,\n    SpendInfo memory _spend_stat\n  ) internal pure {\n    // Get amount of wei able to be spent, given the number of tokens remaining -\n    if ((_wei_sent * (10 ** _sale_stat.token_decimals)) / _cur_tier.purchase_price > _cur_tier.tokens_remaining) {\n      // wei sent is able to purchase more tokens than are remaining in this tier -\n      _spend_stat.amount_spent =\n        (_cur_tier.purchase_price * _cur_tier.tokens_remaining) / (10 ** _sale_stat.token_decimals);\n    } else {\n      // All of the wei sent can be used to purchase tokens\n      _spend_stat.amount_spent =\n        _wei_sent - (_wei_sent * (10 ** _sale_stat.token_decimals)) % _cur_tier.purchase_price;\n    }\n\n    // If the current tier is whitelisted, the sender has a maximum wei contribution cap. If amount spent exceeds this cap, adjust amount spent -\n    if (_cur_tier.tier_is_whitelisted) {\n      if (_spend_stat.amount_spent > _spend_stat.maximum_spend_amount) {\n        _spend_stat.amount_spent =\n          _spend_stat.maximum_spend_amount - (_spend_stat.maximum_spend_amount * (10 ** _sale_stat.token_decimals))\n          % _cur_tier.purchase_price;\n      }\n      // Decrease spender's spend amount remaining by the amount spent\n      _spend_stat.maximum_spend_amount -= _spend_stat.amount_spent;\n    }\n\n    // Ensure spend amount is valid -\n    if (_spend_stat.amount_spent == 0 || _spend_stat.amount_spent > _wei_sent)\n      bytes32(\"InvalidSpendAmount\").trigger();\n\n    // Get number of tokens able to be purchased with the amount spent -\n    _spend_stat.amount_purchased =\n      (_spend_stat.amount_spent * (10 ** _sale_stat.token_decimals) / _cur_tier.purchase_price);\n\n    // Ensure amount of tokens to purchase is not greater than the amount of tokens remaining in this tier -\n    if (_spend_stat.amount_purchased > _cur_tier.tokens_remaining)\n      bytes32(\"InvalidPurchaseAmount\").trigger();\n\n    // Ensure amount of tokens to purchase is greater than the spender's minimum contribution cap -\n    if (_spend_stat.amount_purchased < _spend_stat.minimum_purchase_amount)\n      bytes32(\"UnderMinCap\").trigger();\n  }\n\n  // Parses context array and returns execution id, sender address, and sent wei amount\n  function parse(bytes memory _context) internal pure returns (bytes32 exec_id, address from, uint wei_sent) {\n    if (_context.length != 96)\n      bytes32(\"UnknownExecutionContext\").trigger();\n\n    assembly {\n      exec_id := mload(add(0x20, _context))\n      from := mload(add(0x40, _context))\n      wei_sent := mload(add(0x60, _context))\n    }\n\n    // Ensure sender and exec id are valid\n    if (from == address(0) || exec_id == 0)\n      bytes32(\"UnknownExecutionContext\").trigger();\n  }\n}\n",
  "sourcePath": "/home/alex/auth_os/applications/TokenWizard/crowdsale/MintedCappedCrowdsale/contracts/crowdsale/CrowdsaleBuyTokens.sol",
  "compiler": {
    "name": "solc",
    "version": "0.4.23+commit.124ca40d.Emscripten.clang"
  },
  "schemaVersion": "2.0.0",
  "updatedAt": "2018-05-08T04:11:32.333Z"
}