{
  "contractName": "TokenTransferFrom",
  "abi": [
    {
      "constant": true,
      "inputs": [
        {
          "name": "_from",
          "type": "address"
        },
        {
          "name": "_to",
          "type": "address"
        },
        {
          "name": "_amt",
          "type": "uint256"
        },
        {
          "name": "_context",
          "type": "bytes"
        }
      ],
      "name": "transferFrom",
      "outputs": [
        {
          "name": "store_data",
          "type": "bytes32[]"
        }
      ],
      "payable": false,
      "stateMutability": "view",
      "type": "function"
    }
  ],
  "bytecode": "0x610cdd610030600b82828239805160001a6073146000811461002057610022565bfe5b5030600052607381538281f3007300000000000000000000000000000000000000003014608060405260043610610058576000357c0100000000000000000000000000000000000000000000000000000000900463ffffffff168063ab67aa581461005d575b600080fd5b610101600480360381019080803573ffffffffffffffffffffffffffffffffffffffff169060200190929190803573ffffffffffffffffffffffffffffffffffffffff16906020019092919080359060200190929190803590602001908201803590602001908080601f0160208091040260200160405190810160405280939291908181526020018383808284378201915050505050509192919290505050610158565b6040518080602001828103825283818151815260200191508051906020019060200280838360005b83811015610144578082015181840152602081019050610129565b505050509050019250505060405180910390f35b60606000806000606060008060008073ffffffffffffffffffffffffffffffffffffffff168b73ffffffffffffffffffffffffffffffffffffffff1614806101cc5750600073ffffffffffffffffffffffffffffffffffffffff168c73ffffffffffffffffffffffffffffffffffffffff16145b156101ff576101fe7f496e76616c696453656e6465724f72526563697069656e74000000000000000060001916610a91565b5b61020889610a9b565b50809850819750505061024f60405180807f726561644d756c746928627974657333322c627974657333325b5d2900000000815250601c0190506040518091039020610b6a565b94506102648686610b8790919063ffffffff16565b61027b604060010286610b8790919063ffffffff16565b610292600560010286610b8790919063ffffffff16565b6103578c604051808273ffffffffffffffffffffffffffffffffffffffff1673ffffffffffffffffffffffffffffffffffffffff166c01000000000000000000000000028152601401915050604051809103902060405180807f746f6b656e5f62616c616e636573000000000000000000000000000000000000815250600e0190506040518091039020604051808360001916600019168152602001826000191660001916815260200192505050604051809103902086610b8790919063ffffffff16565b61041c8b604051808273ffffffffffffffffffffffffffffffffffffffff1673ffffffffffffffffffffffffffffffffffffffff166c01000000000000000000000000028152601401915050604051809103902060405180807f746f6b656e5f62616c616e636573000000000000000000000000000000000000815250600e0190506040518091039020604051808360001916600019168152602001826000191660001916815260200192505050604051809103902086610b8790919063ffffffff16565b61055e87604051808273ffffffffffffffffffffffffffffffffffffffff1673ffffffffffffffffffffffffffffffffffffffff166c0100000000000000000000000002815260140191505060405180910390208d604051808273ffffffffffffffffffffffffffffffffffffffff1673ffffffffffffffffffffffffffffffffffffffff166c01000000000000000000000000028152601401915050604051809103902060405180807f746f6b656e5f616c6c6f77616e63657300000000000000000000000000000000815250601001905060405180910390206040518083600019166000191681526020018260001916600019168152602001925050506040518091039020604051808360001916600019168152602001826000191660001916815260200192505050604051809103902086610b8790919063ffffffff16565b6105a660405180807f746f6b656e735f6172655f756e6c6f636b6564000000000000000000000000008152506013019050604051809103902086610b8790919063ffffffff16565b61066b8c604051808273ffffffffffffffffffffffffffffffffffffffff1673ffffffffffffffffffffffffffffffffffffffff166c01000000000000000000000000028152601401915050604051809103902060405180807f746f6b656e5f7472616e736665725f6167656e7473000000000000000000000081525060150190506040518091039020604051808360001916600019168152602001826000191660001916815260200192505050604051809103902086610b8790919063ffffffff16565b61067c61067786610bb2565b610c34565b93506005845114151561068b57fe5b600084600381518110151561069c57fe5b906020019060200201511480156106cb575060008460048151811015156106bf57fe5b90602001906020020151145b156106fe576106fd7f5472616e73666572734c6f636b6564000000000000000000000000000000000060001916610a91565b5b83600081518110151561070d57fe5b90602001906020020151925083600181518110151561072857fe5b90602001906020020151915083600281518110151561074357fe5b9060200190602002015190508983101580156107605750818a8301115b801561076c5750898110155b151561077757600080fd5b89830392508982019150898103905061079c60008087610c3e9092919063ffffffff16565b6108668c604051808273ffffffffffffffffffffffffffffffffffffffff1673ffffffffffffffffffffffffffffffffffffffff166c01000000000000000000000000028152601401915050604051809103902060405180807f746f6b656e5f62616c616e636573000000000000000000000000000000000000815250600e019050604051809103902060405180836000191660001916815260200182600019166000191681526020019250505060405180910390208460010287610c579092919063ffffffff16565b6109308b604051808273ffffffffffffffffffffffffffffffffffffffff1673ffffffffffffffffffffffffffffffffffffffff166c01000000000000000000000000028152601401915050604051809103902060405180807f746f6b656e5f62616c616e636573000000000000000000000000000000000000815250600e019050604051809103902060405180836000191660001916815260200182600019166000191681526020019250505060405180910390208360010287610c579092919063ffffffff16565b610a7787604051808273ffffffffffffffffffffffffffffffffffffffff1673ffffffffffffffffffffffffffffffffffffffff166c0100000000000000000000000002815260140191505060405180910390208d604051808273ffffffffffffffffffffffffffffffffffffffff1673ffffffffffffffffffffffffffffffffffffffff166c01000000000000000000000000028152601401915050604051809103902060405180807f746f6b656e5f616c6c6f77616e6365730000000000000000000000000000000081525060100190506040518091039020604051808360001916600019168152602001826000191660001916815260200192505050604051809103902060405180836000191660001916815260200182600019166000191681526020019250505060405180910390208260010287610c579092919063ffffffff16565b610a8085610c8e565b975050505050505050949350505050565b8060005260206000fd5b600080600060608451141515610ad957610ad87f556e6b6e6f776e457865637574696f6e436f6e7465787400000000000000000060001916610a91565b5b836020015192508360400151915083606001519050600073ffffffffffffffffffffffffffffffffffffffff168273ffffffffffffffffffffffffffffffffffffffff161480610b30575060006001028360001916145b15610b6357610b627f556e6b6e6f776e457865637574696f6e436f6e7465787400000000000000000060001916610a91565b5b9193909250565b600060405190506004815281816020015280604001604052919050565b815160200181818401528083528083602001016040511015610bad578083602c01016040525b505050565b60606000608483511015610bc557600080fd5b600080845185602001335afa90506000811115610bf957825160203d031115610bed57600080fd5b60203d036020843e8291505b801515610c2e57610c2d7f53746f72616765526561644661696c656400000000000000000000000000000060001916610a91565b5b50919050565b6060819050919050565b6040835281836020015280836040015259604052505050565b8251602001828185015280602001905081818501528084528084602001016040511015610c88578084604001016040525b50505050565b6060600060208351061115610ca257600080fd5b602082510482528190509190505600a165627a7a72305820302e25931a4aab72a8250fa29694428d55997bb6a4f677763a40bc108fa0d0c00029",
  "source": "pragma solidity ^0.4.23;\n\nimport \"../lib/MemoryBuffers.sol\";\nimport \"../lib/ArrayUtils.sol\";\n \nlibrary TokenTransferFrom {\n\n  using MemoryBuffers for uint;\n  using ArrayUtils for bytes32[];\n  using Exceptions for bytes32;\n\n  /// TOKEN STORAGE ///\n\n  // Storage seed for user balances mapping\n  bytes32 internal constant TOKEN_BALANCES = keccak256(\"token_balances\");\n\n  // Storage seed for user allowances mapping\n  bytes32 internal constant TOKEN_ALLOWANCES = keccak256(\"token_allowances\");\n\n  // Storage seed for token 'transfer agent' status for any address\n  // Transfer agents can transfer tokens, even if the crowdsale has not yet been finalized\n  bytes32 internal constant TOKEN_TRANSFER_AGENTS = keccak256(\"token_transfer_agents\");\n\n  // Whether or not the token is unlocked for transfers\n  bytes32 internal constant TOKENS_ARE_UNLOCKED = keccak256(\"tokens_are_unlocked\");\n\n  /// FUNCTION SELECTORS ///\n\n  // Function selector for storage 'readMulti'\n  // readMulti(bytes32 exec_id, bytes32[] locations)\n  bytes4 internal constant RD_MULTI = bytes4(keccak256(\"readMulti(bytes32,bytes32[])\"));\n\n  /*\n  Transfers tokens from an owner's balance to a recipient, provided the sender has suffcient allowance\n\n  @param _from: The address from which tokens will be sent\n  @param _to: The destination address, to which tokens will be sent\n  @param _amt: The amount of tokens to send\n  @param _context: The execution context for this application - a 96-byte array containing (in order):\n    1. Application execution id\n    2. Original script sender (address, padded to 32 bytes)\n    3. Wei amount sent with transaction to storage\n  @return store_data: A formatted storage request - first 64 bytes designate a forwarding address (and amount) for any wei sent\n  */\n  function transferFrom(address _from, address _to, uint _amt, bytes memory _context) public view\n  returns (bytes32[] memory store_data) {\n    // Ensure valid inputs\n    if (_to == address(0) || _from == address(0))\n      bytes32(\"InvalidSenderOrRecipient\").trigger();\n\n    address sender;\n    bytes32 exec_id;\n    // Parse context array and get sender address and execution id\n    (exec_id, sender, ) = parse(_context);\n\n    // Create 'readMulti' calldata buffer in memory\n    uint ptr = MemoryBuffers.cdBuff(RD_MULTI);\n    // Place exec id, data read offset, and read size to calldata\n    ptr.cdPush(exec_id);\n    ptr.cdPush(0x40);\n    ptr.cdPush(bytes32(5));\n    // Place owner and recipient balance locations, and sender allowance location in calldata buffer\n    ptr.cdPush(keccak256(keccak256(_from), TOKEN_BALANCES));\n    ptr.cdPush(keccak256(keccak256(_to), TOKEN_BALANCES));\n    ptr.cdPush(keccak256(keccak256(sender), keccak256(keccak256(_from), TOKEN_ALLOWANCES)));\n    // Place token unlock status and owner transfer agent status storage locations in calldata buffer\n    ptr.cdPush(TOKENS_ARE_UNLOCKED);\n    ptr.cdPush(keccak256(keccak256(_from), TOKEN_TRANSFER_AGENTS));\n    // Read from storage\n    uint[] memory read_values = ptr.readMulti().toUintArr();\n    // Ensure length of returned data is correct\n    assert(read_values.length == 5);\n\n    // If the token is not unlocked, and the token owner is not a transfer agent, throw exception\n    if (read_values[3] == 0 && read_values[4] == 0)\n      bytes32(\"TransfersLocked\").trigger();\n\n    // Read returned balances and allowance -\n    uint owner_bal = read_values[0];\n    uint recipient_bal = read_values[1];\n    uint sender_allowance = read_values[2];\n\n    // Ensure owner has sufficient balance to send, and recipient balance does not overflow\n    // Additionally, ensure sender has sufficient allowance\n    require(owner_bal >= _amt && recipient_bal + _amt > recipient_bal && sender_allowance >= _amt);\n\n    // Get updated balances -\n    owner_bal -= _amt;\n    recipient_bal += _amt;\n    // Get updated allowance -\n    sender_allowance -= _amt;\n\n    // Overwrite previous buffer, and create storage return buffer\n    ptr.stOverwrite(0, 0);\n    // Place owner balance location and updated balance in buffer\n    ptr.stPush(keccak256(keccak256(_from), TOKEN_BALANCES), bytes32(owner_bal));\n    // Place recipient balance location and updated balance in buffer\n    ptr.stPush(keccak256(keccak256(_to), TOKEN_BALANCES), bytes32(recipient_bal));\n    // Place sender allowance location and updated allowance in buffer\n    ptr.stPush(keccak256(keccak256(sender), keccak256(keccak256(_from), TOKEN_ALLOWANCES)), bytes32(sender_allowance));\n\n    // Get bytes32[] representation of storage buffer\n    store_data = ptr.getBuffer();\n  }\n\n  // Parses context array and returns execution id, sender address, and sent wei amount\n  function parse(bytes memory _context) internal pure returns (bytes32 exec_id, address from, uint wei_sent) {\n    if (_context.length != 96)\n      bytes32(\"UnknownExecutionContext\").trigger();\n\n    assembly {\n      exec_id := mload(add(0x20, _context))\n      from := mload(add(0x40, _context))\n      wei_sent := mload(add(0x60, _context))\n    }\n\n    // Ensure sender and exec id are valid\n    if (from == address(0) || exec_id == 0)\n      bytes32(\"UnknownExecutionContext\").trigger();\n  }\n}\n",
  "sourcePath": "/home/alex/auth_os/applications/TokenWizard/crowdsale/MintedCappedCrowdsale/contracts/token/TokenTransferFrom.sol",
  "compiler": {
    "name": "solc",
    "version": "0.4.23+commit.124ca40d.Emscripten.clang"
  },
  "schemaVersion": "2.0.0",
  "updatedAt": "2018-05-08T04:11:32.401Z"
}