{
  "contractName": "TokenApprove",
  "abi": [
    {
      "constant": true,
      "inputs": [
        {
          "name": "_spender",
          "type": "address"
        },
        {
          "name": "_amt",
          "type": "uint256"
        },
        {
          "name": "_context",
          "type": "bytes"
        }
      ],
      "name": "approve",
      "outputs": [
        {
          "name": "store_data",
          "type": "bytes32[]"
        }
      ],
      "payable": false,
      "stateMutability": "pure",
      "type": "function"
    },
    {
      "constant": true,
      "inputs": [
        {
          "name": "_spender",
          "type": "address"
        },
        {
          "name": "_amt",
          "type": "uint256"
        },
        {
          "name": "_context",
          "type": "bytes"
        }
      ],
      "name": "increaseApproval",
      "outputs": [
        {
          "name": "store_data",
          "type": "bytes32[]"
        }
      ],
      "payable": false,
      "stateMutability": "view",
      "type": "function"
    },
    {
      "constant": true,
      "inputs": [
        {
          "name": "_spender",
          "type": "address"
        },
        {
          "name": "_amt",
          "type": "uint256"
        },
        {
          "name": "_context",
          "type": "bytes"
        }
      ],
      "name": "decreaseApproval",
      "outputs": [
        {
          "name": "store_data",
          "type": "bytes32[]"
        }
      ],
      "payable": false,
      "stateMutability": "view",
      "type": "function"
    }
  ],
  "bytecode": "0x610e9d610030600b82828239805160001a6073146000811461002057610022565bfe5b5030600052607381538281f300730000000000000000000000000000000000000000301460806040526004361061006e576000357c0100000000000000000000000000000000000000000000000000000000900463ffffffff16806316ca3b63146100735780635c17f9f41461014e5780637272ad4914610229575b600080fd5b6100f7600480360381019080803573ffffffffffffffffffffffffffffffffffffffff16906020019092919080359060200190929190803590602001908201803590602001908080601f0160208091040260200160405190810160405280939291908181526020018383808284378201915050505050509192919290505050610304565b6040518080602001828103825283818151815260200191508051906020019060200280838360005b8381101561013a57808201518184015260208101905061011f565b505050509050019250505060405180910390f35b6101d2600480360381019080803573ffffffffffffffffffffffffffffffffffffffff16906020019092919080359060200190929190803590602001908201803590602001908080601f01602080910402602001604051908101604052809392919081815260200183838082843782019150505050505091929192905050506106b8565b6040518080602001828103825283818151815260200191508051906020019060200280838360005b838110156102155780820151818401526020810190506101fa565b505050509050019250505060405180910390f35b6102ad600480360381019080803573ffffffffffffffffffffffffffffffffffffffff16906020019092919080359060200190929190803590602001908201803590602001908080601f016020809104026020016040519081016040528093929190818152602001838380828437820191505050505050919291929050505061089c565b6040518080602001828103825283818151815260200191508051906020019060200280838360005b838110156102f05780820151818401526020810190506102d5565b505050509050019250505060405180910390f35b6060600080600080600073ffffffffffffffffffffffffffffffffffffffff168873ffffffffffffffffffffffffffffffffffffffff1614806103475750600087145b1561037a576103797f496e76616c69645370656e6465724f72416d740000000000000000000000000060001916610c4f565b5b61038386610c59565b5080955081945050506103ca60405180807f7265616428627974657333322c6279746573333229000000000000000000000081525060150190506040518091039020610d28565b91506103df8383610d4590919063ffffffff16565b61052188604051808273ffffffffffffffffffffffffffffffffffffffff1673ffffffffffffffffffffffffffffffffffffffff166c01000000000000000000000000028152601401915050604051809103902085604051808273ffffffffffffffffffffffffffffffffffffffff1673ffffffffffffffffffffffffffffffffffffffff166c01000000000000000000000000028152601401915050604051809103902060405180807f746f6b656e5f616c6c6f77616e63657300000000000000000000000000000000815250601001905060405180910390206040518083600019166000191681526020018260001916600019168152602001925050506040518091039020604051808360001916600019168152602001826000191660001916815260200192505050604051809103902083610d4590919063ffffffff16565b61052a82610d70565b6001900490508087820111151561054057600080fd5b868101905061055b60008084610dda9092919063ffffffff16565b6106a288604051808273ffffffffffffffffffffffffffffffffffffffff1673ffffffffffffffffffffffffffffffffffffffff166c01000000000000000000000000028152601401915050604051809103902085604051808273ffffffffffffffffffffffffffffffffffffffff1673ffffffffffffffffffffffffffffffffffffffff166c01000000000000000000000000028152601401915050604051809103902060405180807f746f6b656e5f616c6c6f77616e6365730000000000000000000000000000000081525060100190506040518091039020604051808360001916600019168152602001826000191660001916815260200192505050604051809103902060405180836000191660001916815260200182600019166000191681526020019250505060405180910390208260010284610df39092919063ffffffff16565b6106ab82610e2a565b9450505050509392505050565b606060008060008073ffffffffffffffffffffffffffffffffffffffff168773ffffffffffffffffffffffffffffffffffffffff161415610721576107207f496e76616c69645370656e64657200000000000000000000000000000000000060001916610c4f565b5b61072a85610c59565b50809450819350505061073e600080610e4d565b905061088787604051808273ffffffffffffffffffffffffffffffffffffffff1673ffffffffffffffffffffffffffffffffffffffff166c01000000000000000000000000028152601401915050604051809103902084604051808273ffffffffffffffffffffffffffffffffffffffff1673ffffffffffffffffffffffffffffffffffffffff166c01000000000000000000000000028152601401915050604051809103902060405180807f746f6b656e5f616c6c6f77616e6365730000000000000000000000000000000081525060100190506040518091039020604051808360001916600019168152602001826000191660001916815260200192505050604051809103902060405180836000191660001916815260200182600019166000191681526020019250505060405180910390208760010283610df39092919063ffffffff16565b61089081610e2a565b93505050509392505050565b6060600080600080600073ffffffffffffffffffffffffffffffffffffffff168873ffffffffffffffffffffffffffffffffffffffff1614806108df5750600087145b15610912576109117f496e76616c69645370656e6465724f72416d740000000000000000000000000060001916610c4f565b5b61091b86610c59565b50809550819450505061096260405180807f7265616428627974657333322c6279746573333229000000000000000000000081525060150190506040518091039020610d28565b91506109778383610d4590919063ffffffff16565b610ab988604051808273ffffffffffffffffffffffffffffffffffffffff1673ffffffffffffffffffffffffffffffffffffffff166c01000000000000000000000000028152601401915050604051809103902085604051808273ffffffffffffffffffffffffffffffffffffffff1673ffffffffffffffffffffffffffffffffffffffff166c01000000000000000000000000028152601401915050604051809103902060405180807f746f6b656e5f616c6c6f77616e63657300000000000000000000000000000000815250601001905060405180910390206040518083600019166000191681526020018260001916600019168152602001925050506040518091039020604051808360001916600019168152602001826000191660001916815260200192505050604051809103902083610d4590919063ffffffff16565b610ac282610d70565b600190049050808711610ad757868103610ada565b60005b9050610af260008084610dda9092919063ffffffff16565b610c3988604051808273ffffffffffffffffffffffffffffffffffffffff1673ffffffffffffffffffffffffffffffffffffffff166c01000000000000000000000000028152601401915050604051809103902085604051808273ffffffffffffffffffffffffffffffffffffffff1673ffffffffffffffffffffffffffffffffffffffff166c01000000000000000000000000028152601401915050604051809103902060405180807f746f6b656e5f616c6c6f77616e6365730000000000000000000000000000000081525060100190506040518091039020604051808360001916600019168152602001826000191660001916815260200192505050604051809103902060405180836000191660001916815260200182600019166000191681526020019250505060405180910390208260010284610df39092919063ffffffff16565b610c4282610e2a565b9450505050509392505050565b8060005260206000fd5b600080600060608451141515610c9757610c967f556e6b6e6f776e457865637574696f6e436f6e7465787400000000000000000060001916610c4f565b5b836020015192508360400151915083606001519050600073ffffffffffffffffffffffffffffffffffffffff168273ffffffffffffffffffffffffffffffffffffffff161480610cee575060006001028360001916145b15610d2157610d207f556e6b6e6f776e457865637574696f6e436f6e7465787400000000000000000060001916610c4f565b5b9193909250565b600060405190506004815281816020015280604001604052919050565b815160200181818401528083528083602001016040511015610d6b578083602c01016040525b505050565b60008060448351141515610d8357600080fd5b602083845185602001335afa90506000811115610d9f57825191505b801515610dd457610dd37f53746f72616765526561644661696c656400000000000000000000000000000060001916610c4f565b5b50919050565b6040835281836020015280836040015259604052505050565b8251602001828185015280602001905081818501528084528084602001016040511015610e24578084604001016040525b50505050565b6060600060208351061115610e3e57600080fd5b60208251048252819050919050565b600060405190506040815282816020015281816040015280606001604052929150505600a165627a7a72305820d8ef40c9a076ddb7d16cc24c5ade059047068b2411021fb8f5deccd68b798e0b0029",
  "source": "pragma solidity ^0.4.23;\n\nimport \"../lib/MemoryBuffers.sol\";\nimport \"../lib/ArrayUtils.sol\";\n\nlibrary TokenApprove {\n\n  using MemoryBuffers for uint;\n  using ArrayUtils for bytes32[];\n  using Exceptions for bytes32;\n\n  /// TOKEN STORAGE ///\n\n  // Storage seed for user allowances mapping\n  bytes32 internal constant TOKEN_ALLOWANCES = keccak256(\"token_allowances\");\n\n  /// FUNCTION SELECTORS ///\n\n  // Function selector for storage \"read\"\n  // read(bytes32 _exec_id, bytes32 _location) view returns (bytes32 data_read);\n  bytes4 internal constant RD_SING = bytes4(keccak256(\"read(bytes32,bytes32)\"));\n\n  /*\n  Approves another address to spend tokens on the sender's behalf\n\n  @param _spender: The address for which the amount will be approved\n  @param _amt: The amount of tokens to approve for spending\n  @param _context: The execution context for this application - a 96-byte array containing (in order):\n    1. Application execution id\n    2. Original script sender (address, padded to 32 bytes)\n    3. Wei amount sent with transaction to storage\n  @return store_data: A formatted storage request - first 64 bytes designate a forwarding address (and amount) for any wei sent\n  */\n  function approve(address _spender, uint _amt, bytes memory _context) public pure\n  returns (bytes32[] memory store_data) {\n    // Ensure valid inputs\n    if (_spender == address(0))\n      bytes32(\"InvalidSpender\").trigger();\n\n    address sender;\n    bytes32 exec_id;\n    // Parse context array and get sender address and execution id\n    (exec_id, sender, ) = parse(_context);\n\n    // Create storage return data buffer in memory\n    uint ptr = MemoryBuffers.stBuff(0, 0);\n    // Push spender allowance location to buffer\n    ptr.stPush(\n      keccak256(keccak256(_spender), keccak256(keccak256(sender), TOKEN_ALLOWANCES)),\n      bytes32(_amt)\n    );\n\n    // Get bytes32[] representation of storage buffer\n    store_data = ptr.getBuffer();\n  }\n\n  /*\n  Increases the spending approval amount set by the sender for the _spender\n\n  @param _spender: The address for which the allowance will be increased\n  @param _amt: The amount to increase the allowance by\n  @param _context: The execution context for this application - a 96-byte array containing (in order):\n    1. Application execution id\n    2. Original script sender (address, padded to 32 bytes)\n    3. Wei amount sent with transaction to storage\n  @return store_data: A formatted storage request - first 64 bytes designate a forwarding address (and amount) for any wei sent\n  */\n  function increaseApproval(address _spender, uint _amt, bytes memory _context) public view returns (bytes32[] memory store_data) {\n    // Ensure valid inputs\n    if (_spender == address(0) || _amt == 0)\n      bytes32(\"InvalidSpenderOrAmt\").trigger();\n\n    address sender;\n    bytes32 exec_id;\n    // Parse context array and get sender address and execution id\n    (exec_id, sender, ) = parse(_context);\n\n    // Create 'read' calldata buffer in memory\n    uint ptr = MemoryBuffers.cdBuff(RD_SING);\n    // Push exec id and spender allowance location to buffer\n    ptr.cdPush(exec_id);\n    ptr.cdPush(keccak256(keccak256(_spender), keccak256(keccak256(sender), TOKEN_ALLOWANCES)));\n\n    // Read spender allowance from storage\n    uint spender_allowance = uint(ptr.readSingle());\n    // Safely increase the spender's balance -\n    require(spender_allowance + _amt > spender_allowance);\n    spender_allowance += _amt;\n\n    // Overwrite previous buffer, and create storage return buffer\n    ptr.stOverwrite(0, 0);\n    // Place spender allowance location and updated allowance in buffer\n    ptr.stPush(\n      keccak256(keccak256(_spender), keccak256(keccak256(sender), TOKEN_ALLOWANCES)),\n      bytes32(spender_allowance)\n    );\n\n    // Get bytes32[] representation of storage buffer\n    store_data = ptr.getBuffer();\n  }\n\n  /*\n  Decreases the spending approval amount set by the sender for the _spender\n\n  @param _spender: The address for which the allowance will be increased\n  @param _amt: The amount to decrease the allowance by\n  @param _context: The execution context for this application - a 96-byte array containing (in order):\n    1. Application execution id\n    2. Original script sender (address, padded to 32 bytes)\n    3. Wei amount sent with transaction to storage\n  @return store_data: A formatted storage request - first 64 bytes designate a forwarding address (and amount) for any wei sent\n  */\n  function decreaseApproval(address _spender, uint _amt, bytes memory _context) public view returns (bytes32[] memory store_data) {\n    // Ensure valid inputs\n    if (_spender == address(0) || _amt == 0)\n      bytes32(\"InvalidSpenderOrAmt\").trigger();\n\n    address sender;\n    bytes32 exec_id;\n    // Parse context array and get sender address and execution id\n    (exec_id, sender, ) = parse(_context);\n\n    // Create 'read' calldata buffer in memory\n    uint ptr = MemoryBuffers.cdBuff(RD_SING);\n    // Push exec id and spender allowance location to buffer\n    ptr.cdPush(exec_id);\n    ptr.cdPush(keccak256(keccak256(_spender), keccak256(keccak256(sender), TOKEN_ALLOWANCES)));\n\n    // Read spender allowance from storage\n    uint spender_allowance = uint(ptr.readSingle());\n    // Safely decrease the spender's balance -\n    spender_allowance = (_amt > spender_allowance ? 0 : spender_allowance - _amt);\n\n    // Overwrite previous buffer, and create storage return buffer\n    ptr.stOverwrite(0, 0);\n    // Place spender allowance location and updated allowance in buffer\n    ptr.stPush(\n      keccak256(keccak256(_spender), keccak256(keccak256(sender), TOKEN_ALLOWANCES)),\n      bytes32(spender_allowance)\n    );\n\n    // Get bytes32[] representation of storage buffer\n    store_data = ptr.getBuffer();\n  }\n\n  // Parses context array and returns execution id, sender address, and sent wei amount\n  function parse(bytes memory _context) internal pure returns (bytes32 exec_id, address from, uint wei_sent) {\n    if (_context.length != 96)\n      bytes32(\"UnknownExecutionContext\").trigger();\n\n    assembly {\n      exec_id := mload(add(0x20, _context))\n      from := mload(add(0x40, _context))\n      wei_sent := mload(add(0x60, _context))\n    }\n\n    // Ensure sender and exec id are valid\n    if (from == address(0) || exec_id == 0)\n      bytes32(\"UnknownExecutionContext\").trigger();\n  }\n}\n",
  "sourcePath": "/home/alex/auth_os/applications/TokenWizard/crowdsale/MintedCappedCrowdsale/contracts/token/TokenApprove.sol",
  "compiler": {
    "name": "solc",
    "version": "0.4.23+commit.124ca40d.Emscripten.clang"
  },
  "schemaVersion": "2.0.0",
  "updatedAt": "2018-05-02T19:13:39.240Z"
}