{
  "contractName": "TokenTransfer",
  "abi": [
    {
      "constant": true,
      "inputs": [
        {
          "name": "_to",
          "type": "address"
        },
        {
          "name": "_amt",
          "type": "uint256"
        },
        {
          "name": "_context",
          "type": "bytes"
        }
      ],
      "name": "transfer",
      "outputs": [
        {
          "name": "store_data",
          "type": "bytes32[]"
        }
      ],
      "payable": false,
      "stateMutability": "view",
      "type": "function"
    }
  ],
  "bytecode": "0x6109ce610030600b82828239805160001a6073146000811461002057610022565bfe5b5030600052607381538281f3007300000000000000000000000000000000000000003014608060405260043610610058576000357c0100000000000000000000000000000000000000000000000000000000900463ffffffff168063be45fd621461005d575b600080fd5b6100e1600480360381019080803573ffffffffffffffffffffffffffffffffffffffff16906020019092919080359060200190929190803590602001908201803590602001908080601f0160208091040260200160405190810160405280939291908181526020018383808284378201915050505050509192919290505050610138565b6040518080602001828103825283818151815260200191508051906020019060200280838360005b83811015610124578082015181840152602081019050610109565b505050509050019250505060405180910390f35b606060008060006060600080600073ffffffffffffffffffffffffffffffffffffffff168a73ffffffffffffffffffffffffffffffffffffffff1614156101a7576101a67f496e76616c6964526563697069656e740000000000000000000000000000000060001916610782565b5b6101b08861078c565b5080975081965050506101f760405180807f726561644d756c746928627974657333322c627974657333325b5d2900000000815250601c019050604051809103902061085b565b935061020c858561087890919063ffffffff16565b61022360406001028561087890919063ffffffff16565b61023a60046001028561087890919063ffffffff16565b6102ff86604051808273ffffffffffffffffffffffffffffffffffffffff1673ffffffffffffffffffffffffffffffffffffffff166c01000000000000000000000000028152601401915050604051809103902060405180807f746f6b656e5f62616c616e636573000000000000000000000000000000000000815250600e019050604051809103902060405180836000191660001916815260200182600019166000191681526020019250505060405180910390208561087890919063ffffffff16565b6103c48a604051808273ffffffffffffffffffffffffffffffffffffffff1673ffffffffffffffffffffffffffffffffffffffff166c01000000000000000000000000028152601401915050604051809103902060405180807f746f6b656e5f62616c616e636573000000000000000000000000000000000000815250600e019050604051809103902060405180836000191660001916815260200182600019166000191681526020019250505060405180910390208561087890919063ffffffff16565b61040c60405180807f746f6b656e735f6172655f756e6c6f636b656400000000000000000000000000815250601301905060405180910390208561087890919063ffffffff16565b6104d186604051808273ffffffffffffffffffffffffffffffffffffffff1673ffffffffffffffffffffffffffffffffffffffff166c01000000000000000000000000028152601401915050604051809103902060405180807f746f6b656e5f7472616e736665725f6167656e747300000000000000000000008152506015019050604051809103902060405180836000191660001916815260200182600019166000191681526020019250505060405180910390208561087890919063ffffffff16565b6104e26104dd856108a3565b610925565b9250600483511415156104f157fe5b600083600281518110151561050257fe5b906020019060200201511480156105315750600083600381518110151561052557fe5b90602001906020020151145b15610564576105637f5472616e73666572734c6f636b6564000000000000000000000000000000000060001916610782565b5b82600081518110151561057357fe5b90602001906020020151915082600181518110151561058e57fe5b9060200190602002015190508882101580156105ab575080898201115b15156105b657600080fd5b888203915088810190506105d66000808661092f9092919063ffffffff16565b6106a086604051808273ffffffffffffffffffffffffffffffffffffffff1673ffffffffffffffffffffffffffffffffffffffff166c01000000000000000000000000028152601401915050604051809103902060405180807f746f6b656e5f62616c616e636573000000000000000000000000000000000000815250600e0190506040518091039020604051808360001916600019168152602001826000191660001916815260200192505050604051809103902083600102866109489092919063ffffffff16565b61076a8a604051808273ffffffffffffffffffffffffffffffffffffffff1673ffffffffffffffffffffffffffffffffffffffff166c01000000000000000000000000028152601401915050604051809103902060405180807f746f6b656e5f62616c616e636573000000000000000000000000000000000000815250600e0190506040518091039020604051808360001916600019168152602001826000191660001916815260200192505050604051809103902082600102866109489092919063ffffffff16565b6107738461097f565b96505050505050509392505050565b8060005260206000fd5b6000806000606084511415156107ca576107c97f556e6b6e6f776e457865637574696f6e436f6e7465787400000000000000000060001916610782565b5b836020015192508360400151915083606001519050600073ffffffffffffffffffffffffffffffffffffffff168273ffffffffffffffffffffffffffffffffffffffff161480610821575060006001028360001916145b15610854576108537f556e6b6e6f776e457865637574696f6e436f6e7465787400000000000000000060001916610782565b5b9193909250565b600060405190506004815281816020015280604001604052919050565b81516020018181840152808352808360200101604051101561089e578083602c01016040525b505050565b606060006084835110156108b657600080fd5b600080845185602001335afa905060008111156108ea57825160203d0311156108de57600080fd5b60203d036020843e8291505b80151561091f5761091e7f53746f72616765526561644661696c656400000000000000000000000000000060001916610782565b5b50919050565b6060819050919050565b6040835281836020015280836040015259604052505050565b8251602001828185015280602001905081818501528084528084602001016040511015610979578084604001016040525b50505050565b606060006020835106111561099357600080fd5b602082510482528190509190505600a165627a7a72305820da0a055f6dc696e63525eeec3cc71a95c3cbf8efe9c943060d133722068eaa670029",
  "source": "pragma solidity ^0.4.23;\n\nimport \"../lib/MemoryBuffers.sol\";\nimport \"../lib/ArrayUtils.sol\";\n\nlibrary TokenTransfer {\n\n  using MemoryBuffers for uint;\n  using ArrayUtils for bytes32[];\n  using Exceptions for bytes32;\n\n  /// TOKEN STORAGE ///\n\n  // Storage seed for user balances mapping\n  bytes32 internal constant TOKEN_BALANCES = keccak256(\"token_balances\");\n\n  // Storage seed for token 'transfer agent' status for any address\n  // Transfer agents can transfer tokens, even if the crowdsale has not yet been finalized\n  bytes32 internal constant TOKEN_TRANSFER_AGENTS = keccak256(\"token_transfer_agents\");\n\n  // Whether or not the token is unlocked for transfers\n  bytes32 internal constant TOKENS_ARE_UNLOCKED = keccak256(\"tokens_are_unlocked\");\n\n  /// FUNCTION SELECTORS ///\n\n  // Function selector for storage 'readMulti'\n  // readMulti(bytes32 exec_id, bytes32[] locations)\n  bytes4 internal constant RD_MULTI = bytes4(keccak256(\"readMulti(bytes32,bytes32[])\"));\n\n  /*\n  Transfers tokens from one address to another\n\n  @param _to: The destination address, to which tokens will be sent\n  @param _amt: The amount of tokens to send\n  @param _context: The execution context for this application - a 96-byte array containing (in order):\n    1. Application execution id\n    2. Original script sender (address, padded to 32 bytes)\n    3. Wei amount sent with transaction to storage\n  @return store_data: A formatted storage request - first 64 bytes designate a forwarding address (and amount) for any wei sent\n  */\n  function transfer(address _to, uint _amt, bytes memory _context) public view\n  returns (bytes32[] memory store_data) {\n    // Ensure valid inputs\n    if (_to == address(0))\n      bytes32(\"InvalidRecipient\").trigger();\n\n    address sender;\n    bytes32 exec_id;\n    // Parse context array and get sender address and execution id\n    (exec_id, sender, ) = parse(_context);\n\n    // Create 'readMulti' calldata buffer in memory\n    uint ptr = MemoryBuffers.cdBuff(RD_MULTI);\n    // Place exec id, data read offset, and read size to calldata\n    ptr.cdPush(exec_id);\n    ptr.cdPush(0x40);\n    ptr.cdPush(bytes32(4));\n    // Place sender and recipient balance locations in calldata buffer\n    ptr.cdPush(keccak256(keccak256(sender), TOKEN_BALANCES));\n    ptr.cdPush(keccak256(keccak256(_to), TOKEN_BALANCES));\n    // Place token unlock status and sender transfer agent status storage locations in calldata buffer\n    ptr.cdPush(TOKENS_ARE_UNLOCKED);\n    ptr.cdPush(keccak256(keccak256(sender), TOKEN_TRANSFER_AGENTS));\n    // Read from storage\n    uint[] memory read_values = ptr.readMulti().toUintArr();\n    // Ensure length of returned data is correct\n    assert(read_values.length == 4);\n\n    // If the token is not unlocked, and the sender is not a transfer agent, throw exception\n    if (read_values[2] == 0 && read_values[3] == 0)\n      bytes32(\"TransfersLocked\").trigger();\n\n    // Read returned values -\n    uint sender_bal = read_values[0];\n    uint recipient_bal = read_values[1];\n\n    // Ensure owner has sufficient balance to send, and recipient balance does not overflow\n    require(sender_bal >= _amt && recipient_bal + _amt > recipient_bal);\n\n    // Get updated balances -\n    sender_bal -= _amt;\n    recipient_bal += _amt;\n\n    // Overwrite previous buffer, and create storage return buffer\n    ptr.stOverwrite(0, 0);\n    // Place owner balance location and updated balance in buffer\n    ptr.stPush(keccak256(keccak256(sender), TOKEN_BALANCES), bytes32(sender_bal));\n    // Place recipient balance location and updated balance in buffer\n    ptr.stPush(keccak256(keccak256(_to), TOKEN_BALANCES), bytes32(recipient_bal));\n\n    // Get bytes32[] representation of storage buffer\n    store_data = ptr.getBuffer();\n  }\n\n  // Parses context array and returns execution id, sender address, and sent wei amount\n  function parse(bytes memory _context) internal pure returns (bytes32 exec_id, address from, uint wei_sent) {\n    if (_context.length != 96)\n      bytes32(\"UnknownExecutionContext\").trigger();\n\n    assembly {\n      exec_id := mload(add(0x20, _context))\n      from := mload(add(0x40, _context))\n      wei_sent := mload(add(0x60, _context))\n    }\n\n    // Ensure sender and exec id are valid\n    if (from == address(0) || exec_id == 0)\n      bytes32(\"UnknownExecutionContext\").trigger();\n  }\n}\n",
  "sourcePath": "/home/alex/auth_os/applications/TokenWizard/crowdsale/MintedCappedCrowdsale/contracts/token/TokenTransfer.sol",
  "compiler": {
    "name": "solc",
    "version": "0.4.23+commit.124ca40d.Emscripten.clang"
  },
  "schemaVersion": "2.0.0",
  "updatedAt": "2018-05-02T19:13:39.253Z"
}